{
  "_format": "hh-sol-artifact-1",
  "contractName": "ElpisNFT",
  "sourceName": "contracts/ElpisNFT.sol",
  "abi": [
    {
      "inputs": [],
      "stateMutability": "nonpayable",
      "type": "constructor"
    },
    {
      "anonymous": false,
      "inputs": [
        {
          "indexed": true,
          "internalType": "address",
          "name": "owner",
          "type": "address"
        },
        {
          "indexed": true,
          "internalType": "address",
          "name": "approved",
          "type": "address"
        },
        {
          "indexed": true,
          "internalType": "uint256",
          "name": "tokenId",
          "type": "uint256"
        }
      ],
      "name": "Approval",
      "type": "event"
    },
    {
      "anonymous": false,
      "inputs": [
        {
          "indexed": true,
          "internalType": "address",
          "name": "owner",
          "type": "address"
        },
        {
          "indexed": true,
          "internalType": "address",
          "name": "operator",
          "type": "address"
        },
        {
          "indexed": false,
          "internalType": "bool",
          "name": "approved",
          "type": "bool"
        }
      ],
      "name": "ApprovalForAll",
      "type": "event"
    },
    {
      "anonymous": false,
      "inputs": [
        {
          "indexed": true,
          "internalType": "address",
          "name": "from",
          "type": "address"
        },
        {
          "indexed": true,
          "internalType": "address",
          "name": "to",
          "type": "address"
        },
        {
          "indexed": true,
          "internalType": "uint256",
          "name": "tokenId",
          "type": "uint256"
        }
      ],
      "name": "Transfer",
      "type": "event"
    },
    {
      "inputs": [
        {
          "internalType": "address",
          "name": "to",
          "type": "address"
        },
        {
          "internalType": "uint256",
          "name": "tokenId",
          "type": "uint256"
        }
      ],
      "name": "approve",
      "outputs": [],
      "stateMutability": "nonpayable",
      "type": "function"
    },
    {
      "inputs": [
        {
          "internalType": "address",
          "name": "owner",
          "type": "address"
        }
      ],
      "name": "balanceOf",
      "outputs": [
        {
          "internalType": "uint256",
          "name": "",
          "type": "uint256"
        }
      ],
      "stateMutability": "view",
      "type": "function"
    },
    {
      "inputs": [
        {
          "internalType": "uint256",
          "name": "tokenId",
          "type": "uint256"
        }
      ],
      "name": "getApproved",
      "outputs": [
        {
          "internalType": "address",
          "name": "",
          "type": "address"
        }
      ],
      "stateMutability": "view",
      "type": "function"
    },
    {
      "inputs": [
        {
          "internalType": "uint256",
          "name": "tokenId",
          "type": "uint256"
        }
      ],
      "name": "getTokenUri",
      "outputs": [
        {
          "internalType": "string",
          "name": "",
          "type": "string"
        }
      ],
      "stateMutability": "nonpayable",
      "type": "function"
    },
    {
      "inputs": [
        {
          "internalType": "address",
          "name": "owner",
          "type": "address"
        },
        {
          "internalType": "address",
          "name": "operator",
          "type": "address"
        }
      ],
      "name": "isApprovedForAll",
      "outputs": [
        {
          "internalType": "bool",
          "name": "",
          "type": "bool"
        }
      ],
      "stateMutability": "view",
      "type": "function"
    },
    {
      "inputs": [
        {
          "internalType": "uint256",
          "name": "newtokenId",
          "type": "uint256"
        },
        {
          "internalType": "string",
          "name": "_tokenUri",
          "type": "string"
        }
      ],
      "name": "mint",
      "outputs": [
        {
          "internalType": "uint256",
          "name": "",
          "type": "uint256"
        }
      ],
      "stateMutability": "nonpayable",
      "type": "function"
    },
    {
      "inputs": [],
      "name": "name",
      "outputs": [
        {
          "internalType": "string",
          "name": "",
          "type": "string"
        }
      ],
      "stateMutability": "view",
      "type": "function"
    },
    {
      "inputs": [
        {
          "internalType": "uint256",
          "name": "tokenId",
          "type": "uint256"
        }
      ],
      "name": "ownerOf",
      "outputs": [
        {
          "internalType": "address",
          "name": "",
          "type": "address"
        }
      ],
      "stateMutability": "view",
      "type": "function"
    },
    {
      "inputs": [
        {
          "internalType": "address",
          "name": "from",
          "type": "address"
        },
        {
          "internalType": "address",
          "name": "to",
          "type": "address"
        },
        {
          "internalType": "uint256",
          "name": "tokenId",
          "type": "uint256"
        }
      ],
      "name": "safeTransferFrom",
      "outputs": [],
      "stateMutability": "nonpayable",
      "type": "function"
    },
    {
      "inputs": [
        {
          "internalType": "address",
          "name": "from",
          "type": "address"
        },
        {
          "internalType": "address",
          "name": "to",
          "type": "address"
        },
        {
          "internalType": "uint256",
          "name": "tokenId",
          "type": "uint256"
        },
        {
          "internalType": "bytes",
          "name": "data",
          "type": "bytes"
        }
      ],
      "name": "safeTransferFrom",
      "outputs": [],
      "stateMutability": "nonpayable",
      "type": "function"
    },
    {
      "inputs": [
        {
          "internalType": "address",
          "name": "operator",
          "type": "address"
        },
        {
          "internalType": "bool",
          "name": "approved",
          "type": "bool"
        }
      ],
      "name": "setApprovalForAll",
      "outputs": [],
      "stateMutability": "nonpayable",
      "type": "function"
    },
    {
      "inputs": [
        {
          "internalType": "uint256",
          "name": "tokenId",
          "type": "uint256"
        },
        {
          "internalType": "string",
          "name": "_tokenUri",
          "type": "string"
        }
      ],
      "name": "setTokenUri",
      "outputs": [],
      "stateMutability": "nonpayable",
      "type": "function"
    },
    {
      "inputs": [
        {
          "internalType": "bytes4",
          "name": "interfaceId",
          "type": "bytes4"
        }
      ],
      "name": "supportsInterface",
      "outputs": [
        {
          "internalType": "bool",
          "name": "",
          "type": "bool"
        }
      ],
      "stateMutability": "view",
      "type": "function"
    },
    {
      "inputs": [],
      "name": "symbol",
      "outputs": [
        {
          "internalType": "string",
          "name": "",
          "type": "string"
        }
      ],
      "stateMutability": "view",
      "type": "function"
    },
    {
      "inputs": [
        {
          "internalType": "uint256",
          "name": "tokenId",
          "type": "uint256"
        }
      ],
      "name": "tokenURI",
      "outputs": [
        {
          "internalType": "string",
          "name": "",
          "type": "string"
        }
      ],
      "stateMutability": "view",
      "type": "function"
    },
    {
      "inputs": [
        {
          "internalType": "address",
          "name": "from",
          "type": "address"
        },
        {
          "internalType": "address",
          "name": "to",
          "type": "address"
        },
        {
          "internalType": "uint256",
          "name": "tokenId",
          "type": "uint256"
        }
      ],
      "name": "transferFrom",
      "outputs": [],
      "stateMutability": "nonpayable",
      "type": "function"
    }
  ],
  "bytecode": "0x60806040523480156200001157600080fd5b506040518060400160405280600c81526020017f456c70697350726f66696c6500000000000000000000000000000000000000008152506040518060400160405280600381526020017f454c500000000000000000000000000000000000000000000000000000000000815250816000908051906020019062000096929190620000b8565b508060019080519060200190620000af929190620000b8565b505050620001cd565b828054620000c69062000197565b90600052602060002090601f016020900481019282620000ea576000855562000136565b82601f106200010557805160ff191683800117855562000136565b8280016001018555821562000136579182015b828111156200013557825182559160200191906001019062000118565b5b50905062000145919062000149565b5090565b5b80821115620001645760008160009055506001016200014a565b5090565b7f4e487b7100000000000000000000000000000000000000000000000000000000600052602260045260246000fd5b60006002820490506001821680620001b057607f821691505b60208210811415620001c757620001c662000168565b5b50919050565b6128ed80620001dd6000396000f3fe608060405234801561001057600080fd5b50600436106101005760003560e01c806370a0823111610097578063a22cb46511610066578063a22cb465146102d1578063b88d4fde146102ed578063c87b56dd14610309578063e985e9c51461033957610100565b806370a082311461022357806377097fc8146102535780638ad913451461028357806395d89b41146102b357610100565b806323b872dd116100d357806323b872dd1461019f57806342842e0e146101bb57806357f7789e146101d75780636352211e146101f357610100565b806301ffc9a71461010557806306fdde0314610135578063081812fc14610153578063095ea7b314610183575b600080fd5b61011f600480360381019061011a91906118bd565b610369565b60405161012c9190611905565b60405180910390f35b61013d61044b565b60405161014a91906119b9565b60405180910390f35b61016d60048036038101906101689190611a11565b6104dd565b60405161017a9190611a7f565b60405180910390f35b61019d60048036038101906101989190611ac6565b610523565b005b6101b960048036038101906101b49190611b06565b61063b565b005b6101d560048036038101906101d09190611b06565b61069b565b005b6101f160048036038101906101ec9190611c8e565b6106bb565b005b61020d60048036038101906102089190611a11565b6106c9565b60405161021a9190611a7f565b60405180910390f35b61023d60048036038101906102389190611cea565b61077b565b60405161024a9190611d26565b60405180910390f35b61026d60048036038101906102689190611c8e565b610833565b60405161027a9190611d26565b60405180910390f35b61029d60048036038101906102989190611a11565b610852565b6040516102aa91906119b9565b60405180910390f35b6102bb610864565b6040516102c891906119b9565b60405180910390f35b6102eb60048036038101906102e69190611d6d565b6108f6565b005b61030760048036038101906103029190611e4e565b61090c565b005b610323600480360381019061031e9190611a11565b61096e565b60405161033091906119b9565b60405180910390f35b610353600480360381019061034e9190611ed1565b610a81565b6040516103609190611905565b60405180910390f35b60007f80ac58cd000000000000000000000000000000000000000000000000000000007bffffffffffffffffffffffffffffffffffffffffffffffffffffffff1916827bffffffffffffffffffffffffffffffffffffffffffffffffffffffff1916148061043457507f5b5e139f000000000000000000000000000000000000000000000000000000007bffffffffffffffffffffffffffffffffffffffffffffffffffffffff1916827bffffffffffffffffffffffffffffffffffffffffffffffffffffffff1916145b80610444575061044382610b15565b5b9050919050565b60606000805461045a90611f40565b80601f016020809104026020016040519081016040528092919081815260200182805461048690611f40565b80156104d35780601f106104a8576101008083540402835291602001916104d3565b820191906000526020600020905b8154815290600101906020018083116104b657829003601f168201915b5050505050905090565b60006104e882610b7f565b6004600083815260200190815260200160002060009054906101000a900473ffffffffffffffffffffffffffffffffffffffff169050919050565b600061052e826106c9565b90508073ffffffffffffffffffffffffffffffffffffffff168373ffffffffffffffffffffffffffffffffffffffff16141561059f576040517f08c379a000000000000000000000000000000000000000000000000000000000815260040161059690611fe4565b60405180910390fd5b8073ffffffffffffffffffffffffffffffffffffffff166105be610bca565b73ffffffffffffffffffffffffffffffffffffffff1614806105ed57506105ec816105e7610bca565b610a81565b5b61062c576040517f08c379a000000000000000000000000000000000000000000000000000000000815260040161062390612076565b60405180910390fd5b6106368383610bd2565b505050565b61064c610646610bca565b82610c8b565b61068b576040517f08c379a000000000000000000000000000000000000000000000000000000000815260040161068290612108565b60405180910390fd5b610696838383610d20565b505050565b6106b68383836040518060200160405280600081525061090c565b505050565b6106c58282610f87565b5050565b6000806002600084815260200190815260200160002060009054906101000a900473ffffffffffffffffffffffffffffffffffffffff169050600073ffffffffffffffffffffffffffffffffffffffff168173ffffffffffffffffffffffffffffffffffffffff161415610772576040517f08c379a000000000000000000000000000000000000000000000000000000000815260040161076990612174565b60405180910390fd5b80915050919050565b60008073ffffffffffffffffffffffffffffffffffffffff168273ffffffffffffffffffffffffffffffffffffffff1614156107ec576040517f08c379a00000000000000000000000000000000000000000000000000000000081526004016107e390612206565b60405180910390fd5b600360008373ffffffffffffffffffffffffffffffffffffffff1673ffffffffffffffffffffffffffffffffffffffff168152602001908152602001600020549050919050565b600061083f3384610ffb565b6108498383610f87565b82905092915050565b606061085d8261096e565b9050919050565b60606001805461087390611f40565b80601f016020809104026020016040519081016040528092919081815260200182805461089f90611f40565b80156108ec5780601f106108c1576101008083540402835291602001916108ec565b820191906000526020600020905b8154815290600101906020018083116108cf57829003601f168201915b5050505050905090565b610908610901610bca565b83836111d5565b5050565b61091d610917610bca565b83610c8b565b61095c576040517f08c379a000000000000000000000000000000000000000000000000000000000815260040161095390612108565b60405180910390fd5b61096884848484611342565b50505050565b606061097982610b7f565b600060066000848152602001908152602001600020805461099990611f40565b80601f01602080910402602001604051908101604052809291908181526020018280546109c590611f40565b8015610a125780601f106109e757610100808354040283529160200191610a12565b820191906000526020600020905b8154815290600101906020018083116109f557829003601f168201915b505050505090506000610a2361139e565b9050600081511415610a39578192505050610a7c565b600082511115610a6e578082604051602001610a56929190612262565b60405160208183030381529060405292505050610a7c565b610a77846113b5565b925050505b919050565b6000600560008473ffffffffffffffffffffffffffffffffffffffff1673ffffffffffffffffffffffffffffffffffffffff16815260200190815260200160002060008373ffffffffffffffffffffffffffffffffffffffff1673ffffffffffffffffffffffffffffffffffffffff16815260200190815260200160002060009054906101000a900460ff16905092915050565b60007f01ffc9a7000000000000000000000000000000000000000000000000000000007bffffffffffffffffffffffffffffffffffffffffffffffffffffffff1916827bffffffffffffffffffffffffffffffffffffffffffffffffffffffff1916149050919050565b610b888161141d565b610bc7576040517f08c379a0000000000000000000000000000000000000000000000000000000008152600401610bbe90612174565b60405180910390fd5b50565b600033905090565b816004600083815260200190815260200160002060006101000a81548173ffffffffffffffffffffffffffffffffffffffff021916908373ffffffffffffffffffffffffffffffffffffffff160217905550808273ffffffffffffffffffffffffffffffffffffffff16610c45836106c9565b73ffffffffffffffffffffffffffffffffffffffff167f8c5be1e5ebec7d5bd14f71427d1e84f3dd0314c0f7b2291e5b200ac8c7c3b92560405160405180910390a45050565b600080610c97836106c9565b90508073ffffffffffffffffffffffffffffffffffffffff168473ffffffffffffffffffffffffffffffffffffffff161480610cd95750610cd88185610a81565b5b80610d1757508373ffffffffffffffffffffffffffffffffffffffff16610cff846104dd565b73ffffffffffffffffffffffffffffffffffffffff16145b91505092915050565b8273ffffffffffffffffffffffffffffffffffffffff16610d40826106c9565b73ffffffffffffffffffffffffffffffffffffffff1614610d96576040517f08c379a0000000000000000000000000000000000000000000000000000000008152600401610d8d906122f8565b60405180910390fd5b600073ffffffffffffffffffffffffffffffffffffffff168273ffffffffffffffffffffffffffffffffffffffff161415610e06576040517f08c379a0000000000000000000000000000000000000000000000000000000008152600401610dfd9061238a565b60405180910390fd5b610e11838383611489565b610e1c600082610bd2565b6001600360008573ffffffffffffffffffffffffffffffffffffffff1673ffffffffffffffffffffffffffffffffffffffff1681526020019081526020016000206000828254610e6c91906123d9565b925050819055506001600360008473ffffffffffffffffffffffffffffffffffffffff1673ffffffffffffffffffffffffffffffffffffffff1681526020019081526020016000206000828254610ec3919061240d565b92505081905550816002600083815260200190815260200160002060006101000a81548173ffffffffffffffffffffffffffffffffffffffff021916908373ffffffffffffffffffffffffffffffffffffffff160217905550808273ffffffffffffffffffffffffffffffffffffffff168473ffffffffffffffffffffffffffffffffffffffff167fddf252ad1be2c89b69c2b068fc378daa952ba7f163c4a11628f55a4df523b3ef60405160405180910390a4610f8283838361148e565b505050565b610f908261141d565b610fcf576040517f08c379a0000000000000000000000000000000000000000000000000000000008152600401610fc6906124d5565b60405180910390fd5b80600660008481526020019081526020016000209080519060200190610ff69291906117ae565b505050565b600073ffffffffffffffffffffffffffffffffffffffff168273ffffffffffffffffffffffffffffffffffffffff16141561106b576040517f08c379a000000000000000000000000000000000000000000000000000000000815260040161106290612541565b60405180910390fd5b6110748161141d565b156110b4576040517f08c379a00000000000000000000000000000000000000000000000000000000081526004016110ab906125ad565b60405180910390fd5b6110c060008383611489565b6001600360008473ffffffffffffffffffffffffffffffffffffffff1673ffffffffffffffffffffffffffffffffffffffff1681526020019081526020016000206000828254611110919061240d565b92505081905550816002600083815260200190815260200160002060006101000a81548173ffffffffffffffffffffffffffffffffffffffff021916908373ffffffffffffffffffffffffffffffffffffffff160217905550808273ffffffffffffffffffffffffffffffffffffffff16600073ffffffffffffffffffffffffffffffffffffffff167fddf252ad1be2c89b69c2b068fc378daa952ba7f163c4a11628f55a4df523b3ef60405160405180910390a46111d16000838361148e565b5050565b8173ffffffffffffffffffffffffffffffffffffffff168373ffffffffffffffffffffffffffffffffffffffff161415611244576040517f08c379a000000000000000000000000000000000000000000000000000000000815260040161123b90612619565b60405180910390fd5b80600560008573ffffffffffffffffffffffffffffffffffffffff1673ffffffffffffffffffffffffffffffffffffffff16815260200190815260200160002060008473ffffffffffffffffffffffffffffffffffffffff1673ffffffffffffffffffffffffffffffffffffffff16815260200190815260200160002060006101000a81548160ff0219169083151502179055508173ffffffffffffffffffffffffffffffffffffffff168373ffffffffffffffffffffffffffffffffffffffff167f17307eab39ab6107e8899845ad3d59bd9653f200f220920489ca2b5937696c31836040516113359190611905565b60405180910390a3505050565b61134d848484610d20565b61135984848484611493565b611398576040517f08c379a000000000000000000000000000000000000000000000000000000000815260040161138f906126ab565b60405180910390fd5b50505050565b606060405180602001604052806000815250905090565b60606113c082610b7f565b60006113ca61139e565b905060008151116113ea5760405180602001604052806000815250611415565b806113f48461162a565b604051602001611405929190612262565b6040516020818303038152906040525b915050919050565b60008073ffffffffffffffffffffffffffffffffffffffff166002600084815260200190815260200160002060009054906101000a900473ffffffffffffffffffffffffffffffffffffffff1673ffffffffffffffffffffffffffffffffffffffff1614159050919050565b505050565b505050565b60006114b48473ffffffffffffffffffffffffffffffffffffffff1661178b565b1561161d578373ffffffffffffffffffffffffffffffffffffffff1663150b7a026114dd610bca565b8786866040518563ffffffff1660e01b81526004016114ff9493929190612720565b602060405180830381600087803b15801561151957600080fd5b505af192505050801561154a57506040513d601f19601f820116820180604052508101906115479190612781565b60015b6115cd573d806000811461157a576040519150601f19603f3d011682016040523d82523d6000602084013e61157f565b606091505b506000815114156115c5576040517f08c379a00000000000000000000000000000000000000000000000000000000081526004016115bc906126ab565b60405180910390fd5b805181602001fd5b63150b7a0260e01b7bffffffffffffffffffffffffffffffffffffffffffffffffffffffff1916817bffffffffffffffffffffffffffffffffffffffffffffffffffffffff191614915050611622565b600190505b949350505050565b60606000821415611672576040518060400160405280600181526020017f30000000000000000000000000000000000000000000000000000000000000008152509050611786565b600082905060005b600082146116a457808061168d906127ae565b915050600a8261169d9190612826565b915061167a565b60008167ffffffffffffffff8111156116c0576116bf611b63565b5b6040519080825280601f01601f1916602001820160405280156116f25781602001600182028036833780820191505090505b5090505b6000851461177f5760018261170b91906123d9565b9150600a8561171a9190612857565b6030611726919061240d565b60f81b81838151811061173c5761173b612888565b5b60200101907effffffffffffffffffffffffffffffffffffffffffffffffffffffffffffff1916908160001a905350600a856117789190612826565b94506116f6565b8093505050505b919050565b6000808273ffffffffffffffffffffffffffffffffffffffff163b119050919050565b8280546117ba90611f40565b90600052602060002090601f0160209004810192826117dc5760008555611823565b82601f106117f557805160ff1916838001178555611823565b82800160010185558215611823579182015b82811115611822578251825591602001919060010190611807565b5b5090506118309190611834565b5090565b5b8082111561184d576000816000905550600101611835565b5090565b6000604051905090565b600080fd5b600080fd5b60007fffffffff0000000000000000000000000000000000000000000000000000000082169050919050565b61189a81611865565b81146118a557600080fd5b50565b6000813590506118b781611891565b92915050565b6000602082840312156118d3576118d261185b565b5b60006118e1848285016118a8565b91505092915050565b60008115159050919050565b6118ff816118ea565b82525050565b600060208201905061191a60008301846118f6565b92915050565b600081519050919050565b600082825260208201905092915050565b60005b8381101561195a57808201518184015260208101905061193f565b83811115611969576000848401525b50505050565b6000601f19601f8301169050919050565b600061198b82611920565b611995818561192b565b93506119a581856020860161193c565b6119ae8161196f565b840191505092915050565b600060208201905081810360008301526119d38184611980565b905092915050565b6000819050919050565b6119ee816119db565b81146119f957600080fd5b50565b600081359050611a0b816119e5565b92915050565b600060208284031215611a2757611a2661185b565b5b6000611a35848285016119fc565b91505092915050565b600073ffffffffffffffffffffffffffffffffffffffff82169050919050565b6000611a6982611a3e565b9050919050565b611a7981611a5e565b82525050565b6000602082019050611a946000830184611a70565b92915050565b611aa381611a5e565b8114611aae57600080fd5b50565b600081359050611ac081611a9a565b92915050565b60008060408385031215611add57611adc61185b565b5b6000611aeb85828601611ab1565b9250506020611afc858286016119fc565b9150509250929050565b600080600060608486031215611b1f57611b1e61185b565b5b6000611b2d86828701611ab1565b9350506020611b3e86828701611ab1565b9250506040611b4f868287016119fc565b9150509250925092565b600080fd5b600080fd5b7f4e487b7100000000000000000000000000000000000000000000000000000000600052604160045260246000fd5b611b9b8261196f565b810181811067ffffffffffffffff82111715611bba57611bb9611b63565b5b80604052505050565b6000611bcd611851565b9050611bd98282611b92565b919050565b600067ffffffffffffffff821115611bf957611bf8611b63565b5b611c028261196f565b9050602081019050919050565b82818337600083830152505050565b6000611c31611c2c84611bde565b611bc3565b905082815260208101848484011115611c4d57611c4c611b5e565b5b611c58848285611c0f565b509392505050565b600082601f830112611c7557611c74611b59565b5b8135611c85848260208601611c1e565b91505092915050565b60008060408385031215611ca557611ca461185b565b5b6000611cb3858286016119fc565b925050602083013567ffffffffffffffff811115611cd457611cd3611860565b5b611ce085828601611c60565b9150509250929050565b600060208284031215611d0057611cff61185b565b5b6000611d0e84828501611ab1565b91505092915050565b611d20816119db565b82525050565b6000602082019050611d3b6000830184611d17565b92915050565b611d4a816118ea565b8114611d5557600080fd5b50565b600081359050611d6781611d41565b92915050565b60008060408385031215611d8457611d8361185b565b5b6000611d9285828601611ab1565b9250506020611da385828601611d58565b9150509250929050565b600067ffffffffffffffff821115611dc857611dc7611b63565b5b611dd18261196f565b9050602081019050919050565b6000611df1611dec84611dad565b611bc3565b905082815260208101848484011115611e0d57611e0c611b5e565b5b611e18848285611c0f565b509392505050565b600082601f830112611e3557611e34611b59565b5b8135611e45848260208601611dde565b91505092915050565b60008060008060808587031215611e6857611e6761185b565b5b6000611e7687828801611ab1565b9450506020611e8787828801611ab1565b9350506040611e98878288016119fc565b925050606085013567ffffffffffffffff811115611eb957611eb8611860565b5b611ec587828801611e20565b91505092959194509250565b60008060408385031215611ee857611ee761185b565b5b6000611ef685828601611ab1565b9250506020611f0785828601611ab1565b9150509250929050565b7f4e487b7100000000000000000000000000000000000000000000000000000000600052602260045260246000fd5b60006002820490506001821680611f5857607f821691505b60208210811415611f6c57611f6b611f11565b5b50919050565b7f4552433732313a20617070726f76616c20746f2063757272656e74206f776e6560008201527f7200000000000000000000000000000000000000000000000000000000000000602082015250565b6000611fce60218361192b565b9150611fd982611f72565b604082019050919050565b60006020820190508181036000830152611ffd81611fc1565b9050919050565b7f4552433732313a20617070726f76652063616c6c6572206973206e6f7420746f60008201527f6b656e206f776e6572206e6f7220617070726f76656420666f7220616c6c0000602082015250565b6000612060603e8361192b565b915061206b82612004565b604082019050919050565b6000602082019050818103600083015261208f81612053565b9050919050565b7f4552433732313a2063616c6c6572206973206e6f7420746f6b656e206f776e6560008201527f72206e6f7220617070726f766564000000000000000000000000000000000000602082015250565b60006120f2602e8361192b565b91506120fd82612096565b604082019050919050565b60006020820190508181036000830152612121816120e5565b9050919050565b7f4552433732313a20696e76616c696420746f6b656e2049440000000000000000600082015250565b600061215e60188361192b565b915061216982612128565b602082019050919050565b6000602082019050818103600083015261218d81612151565b9050919050565b7f4552433732313a2061646472657373207a65726f206973206e6f74206120766160008201527f6c6964206f776e65720000000000000000000000000000000000000000000000602082015250565b60006121f060298361192b565b91506121fb82612194565b604082019050919050565b6000602082019050818103600083015261221f816121e3565b9050919050565b600081905092915050565b600061223c82611920565b6122468185612226565b935061225681856020860161193c565b80840191505092915050565b600061226e8285612231565b915061227a8284612231565b91508190509392505050565b7f4552433732313a207472616e736665722066726f6d20696e636f72726563742060008201527f6f776e6572000000000000000000000000000000000000000000000000000000602082015250565b60006122e260258361192b565b91506122ed82612286565b604082019050919050565b60006020820190508181036000830152612311816122d5565b9050919050565b7f4552433732313a207472616e7366657220746f20746865207a65726f2061646460008201527f7265737300000000000000000000000000000000000000000000000000000000602082015250565b600061237460248361192b565b915061237f82612318565b604082019050919050565b600060208201905081810360008301526123a381612367565b9050919050565b7f4e487b7100000000000000000000000000000000000000000000000000000000600052601160045260246000fd5b60006123e4826119db565b91506123ef836119db565b925082821015612402576124016123aa565b5b828203905092915050565b6000612418826119db565b9150612423836119db565b9250827fffffffffffffffffffffffffffffffffffffffffffffffffffffffffffffffff03821115612458576124576123aa565b5b828201905092915050565b7f45524337323155524953746f726167653a2055524920736574206f66206e6f6e60008201527f6578697374656e7420746f6b656e000000000000000000000000000000000000602082015250565b60006124bf602e8361192b565b91506124ca82612463565b604082019050919050565b600060208201905081810360008301526124ee816124b2565b9050919050565b7f4552433732313a206d696e7420746f20746865207a65726f2061646472657373600082015250565b600061252b60208361192b565b9150612536826124f5565b602082019050919050565b6000602082019050818103600083015261255a8161251e565b9050919050565b7f4552433732313a20746f6b656e20616c7265616479206d696e74656400000000600082015250565b6000612597601c8361192b565b91506125a282612561565b602082019050919050565b600060208201905081810360008301526125c68161258a565b9050919050565b7f4552433732313a20617070726f766520746f2063616c6c657200000000000000600082015250565b600061260360198361192b565b915061260e826125cd565b602082019050919050565b60006020820190508181036000830152612632816125f6565b9050919050565b7f4552433732313a207472616e7366657220746f206e6f6e20455243373231526560008201527f63656976657220696d706c656d656e7465720000000000000000000000000000602082015250565b600061269560328361192b565b91506126a082612639565b604082019050919050565b600060208201905081810360008301526126c481612688565b9050919050565b600081519050919050565b600082825260208201905092915050565b60006126f2826126cb565b6126fc81856126d6565b935061270c81856020860161193c565b6127158161196f565b840191505092915050565b60006080820190506127356000830187611a70565b6127426020830186611a70565b61274f6040830185611d17565b818103606083015261276181846126e7565b905095945050505050565b60008151905061277b81611891565b92915050565b6000602082840312156127975761279661185b565b5b60006127a58482850161276c565b91505092915050565b60006127b9826119db565b91507fffffffffffffffffffffffffffffffffffffffffffffffffffffffffffffffff8214156127ec576127eb6123aa565b5b600182019050919050565b7f4e487b7100000000000000000000000000000000000000000000000000000000600052601260045260246000fd5b6000612831826119db565b915061283c836119db565b92508261284c5761284b6127f7565b5b828204905092915050565b6000612862826119db565b915061286d836119db565b92508261287d5761287c6127f7565b5b828206905092915050565b7f4e487b7100000000000000000000000000000000000000000000000000000000600052603260045260246000fdfea2646970667358221220e2ccfb3e2ccb821c16f9fbafeedf8ddb84fb263c88c9ee0318d323e51d9937c564736f6c63430008090033",
  "linkReferences": {},
  "deployedLinkReferences": {}
}