{
  "_format": "hh-sol-artifact-1",
  "contractName": "Elpis",
  "sourceName": "contracts/Elpis.sol",
  "abi": [
    {
      "inputs": [
        {
          "internalType": "address",
          "name": "_nftAddress",
          "type": "address"
        }
      ],
      "stateMutability": "nonpayable",
      "type": "constructor"
    },
    {
      "anonymous": false,
      "inputs": [
        {
          "indexed": false,
          "internalType": "bool",
          "name": "allow",
          "type": "bool"
        }
      ],
      "name": "AllowFollowing",
      "type": "event"
    },
    {
      "anonymous": false,
      "inputs": [
        {
          "indexed": true,
          "internalType": "address",
          "name": "account",
          "type": "address"
        },
        {
          "indexed": true,
          "internalType": "address",
          "name": "operator",
          "type": "address"
        },
        {
          "indexed": false,
          "internalType": "bool",
          "name": "approved",
          "type": "bool"
        }
      ],
      "name": "ApprovalForAll",
      "type": "event"
    },
    {
      "anonymous": false,
      "inputs": [
        {
          "indexed": true,
          "internalType": "address",
          "name": "previousOwner",
          "type": "address"
        },
        {
          "indexed": true,
          "internalType": "address",
          "name": "newOwner",
          "type": "address"
        }
      ],
      "name": "OwnershipTransferred",
      "type": "event"
    },
    {
      "anonymous": false,
      "inputs": [
        {
          "indexed": false,
          "internalType": "string",
          "name": "handle",
          "type": "string"
        },
        {
          "indexed": false,
          "internalType": "uint256",
          "name": "postCount",
          "type": "uint256"
        }
      ],
      "name": "PostCreated",
      "type": "event"
    },
    {
      "anonymous": false,
      "inputs": [
        {
          "indexed": false,
          "internalType": "string",
          "name": "posthandle",
          "type": "string"
        }
      ],
      "name": "PostInteraction",
      "type": "event"
    },
    {
      "anonymous": false,
      "inputs": [
        {
          "indexed": false,
          "internalType": "string",
          "name": "handle",
          "type": "string"
        },
        {
          "indexed": true,
          "internalType": "address",
          "name": "user",
          "type": "address"
        }
      ],
      "name": "ProfileCreated",
      "type": "event"
    },
    {
      "anonymous": false,
      "inputs": [
        {
          "indexed": false,
          "internalType": "string",
          "name": "follwerhandle",
          "type": "string"
        },
        {
          "indexed": false,
          "internalType": "string",
          "name": "followinghandle",
          "type": "string"
        }
      ],
      "name": "StartedFollowing",
      "type": "event"
    },
    {
      "anonymous": false,
      "inputs": [
        {
          "indexed": true,
          "internalType": "address",
          "name": "operator",
          "type": "address"
        },
        {
          "indexed": true,
          "internalType": "address",
          "name": "from",
          "type": "address"
        },
        {
          "indexed": true,
          "internalType": "address",
          "name": "to",
          "type": "address"
        },
        {
          "indexed": false,
          "internalType": "uint256[]",
          "name": "ids",
          "type": "uint256[]"
        },
        {
          "indexed": false,
          "internalType": "uint256[]",
          "name": "values",
          "type": "uint256[]"
        }
      ],
      "name": "TransferBatch",
      "type": "event"
    },
    {
      "anonymous": false,
      "inputs": [
        {
          "indexed": true,
          "internalType": "address",
          "name": "operator",
          "type": "address"
        },
        {
          "indexed": true,
          "internalType": "address",
          "name": "from",
          "type": "address"
        },
        {
          "indexed": true,
          "internalType": "address",
          "name": "to",
          "type": "address"
        },
        {
          "indexed": false,
          "internalType": "uint256",
          "name": "id",
          "type": "uint256"
        },
        {
          "indexed": false,
          "internalType": "uint256",
          "name": "value",
          "type": "uint256"
        }
      ],
      "name": "TransferSingle",
      "type": "event"
    },
    {
      "anonymous": false,
      "inputs": [
        {
          "indexed": false,
          "internalType": "string",
          "name": "value",
          "type": "string"
        },
        {
          "indexed": true,
          "internalType": "uint256",
          "name": "id",
          "type": "uint256"
        }
      ],
      "name": "URI",
      "type": "event"
    },
    {
      "inputs": [
        {
          "internalType": "string",
          "name": "_postProfileHandle",
          "type": "string"
        },
        {
          "internalType": "string",
          "name": "_postMetadata",
          "type": "string"
        }
      ],
      "name": "addCommentAndLikes",
      "outputs": [],
      "stateMutability": "nonpayable",
      "type": "function"
    },
    {
      "inputs": [
        {
          "internalType": "string",
          "name": "_postMetaData",
          "type": "string"
        }
      ],
      "name": "addPost",
      "outputs": [],
      "stateMutability": "nonpayable",
      "type": "function"
    },
    {
      "inputs": [
        {
          "internalType": "address",
          "name": "account",
          "type": "address"
        },
        {
          "internalType": "uint256",
          "name": "id",
          "type": "uint256"
        }
      ],
      "name": "balanceOf",
      "outputs": [
        {
          "internalType": "uint256",
          "name": "",
          "type": "uint256"
        }
      ],
      "stateMutability": "view",
      "type": "function"
    },
    {
      "inputs": [
        {
          "internalType": "address[]",
          "name": "accounts",
          "type": "address[]"
        },
        {
          "internalType": "uint256[]",
          "name": "ids",
          "type": "uint256[]"
        }
      ],
      "name": "balanceOfBatch",
      "outputs": [
        {
          "internalType": "uint256[]",
          "name": "",
          "type": "uint256[]"
        }
      ],
      "stateMutability": "view",
      "type": "function"
    },
    {
      "inputs": [
        {
          "internalType": "string",
          "name": "_name",
          "type": "string"
        },
        {
          "internalType": "string",
          "name": "_handle",
          "type": "string"
        },
        {
          "internalType": "string",
          "name": "_bio",
          "type": "string"
        },
        {
          "internalType": "string",
          "name": "_profileImageUrl",
          "type": "string"
        },
        {
          "internalType": "string",
          "name": "_coverImageUrl",
          "type": "string"
        },
        {
          "internalType": "string",
          "name": "_tokenURI",
          "type": "string"
        }
      ],
      "name": "createProfile",
      "outputs": [
        {
          "internalType": "string",
          "name": "userHandle",
          "type": "string"
        }
      ],
      "stateMutability": "nonpayable",
      "type": "function"
    },
    {
      "inputs": [
        {
          "internalType": "string",
          "name": "_handle",
          "type": "string"
        },
        {
          "internalType": "string",
          "name": "_followerMetaData",
          "type": "string"
        },
        {
          "internalType": "string",
          "name": "_followingMetaData",
          "type": "string"
        }
      ],
      "name": "followProfile",
      "outputs": [],
      "stateMutability": "nonpayable",
      "type": "function"
    },
    {
      "inputs": [
        {
          "internalType": "uint256",
          "name": "_tokenId",
          "type": "uint256"
        }
      ],
      "name": "getBalance",
      "outputs": [
        {
          "internalType": "uint256",
          "name": "",
          "type": "uint256"
        }
      ],
      "stateMutability": "view",
      "type": "function"
    },
    {
      "inputs": [
        {
          "internalType": "uint256",
          "name": "profileId",
          "type": "uint256"
        },
        {
          "internalType": "address",
          "name": "profileAddress",
          "type": "address"
        }
      ],
      "name": "getCreatorToken",
      "outputs": [],
      "stateMutability": "nonpayable",
      "type": "function"
    },
    {
      "inputs": [],
      "name": "getProfile",
      "outputs": [
        {
          "components": [
            {
              "internalType": "string",
              "name": "name",
              "type": "string"
            },
            {
              "internalType": "string",
              "name": "handle",
              "type": "string"
            },
            {
              "internalType": "string",
              "name": "bio",
              "type": "string"
            },
            {
              "internalType": "string",
              "name": "profileImageUrl",
              "type": "string"
            },
            {
              "internalType": "string",
              "name": "coverImageUrl",
              "type": "string"
            },
            {
              "internalType": "uint256",
              "name": "followerCount",
              "type": "uint256"
            },
            {
              "internalType": "uint256",
              "name": "followingCount",
              "type": "uint256"
            },
            {
              "internalType": "uint256",
              "name": "postCount",
              "type": "uint256"
            },
            {
              "internalType": "string",
              "name": "followerMetaData",
              "type": "string"
            },
            {
              "internalType": "string",
              "name": "followingMetaData",
              "type": "string"
            },
            {
              "internalType": "string",
              "name": "postMetaData",
              "type": "string"
            },
            {
              "internalType": "bool",
              "name": "profileExist",
              "type": "bool"
            },
            {
              "internalType": "uint256",
              "name": "tokenId",
              "type": "uint256"
            }
          ],
          "internalType": "struct Elpis.Profile",
          "name": "_user",
          "type": "tuple"
        }
      ],
      "stateMutability": "view",
      "type": "function"
    },
    {
      "inputs": [
        {
          "internalType": "uint256",
          "name": "tokenId",
          "type": "uint256"
        }
      ],
      "name": "getTokenUri",
      "outputs": [
        {
          "internalType": "string",
          "name": "",
          "type": "string"
        }
      ],
      "stateMutability": "nonpayable",
      "type": "function"
    },
    {
      "inputs": [],
      "name": "getTotalUser",
      "outputs": [
        {
          "internalType": "uint256",
          "name": "",
          "type": "uint256"
        }
      ],
      "stateMutability": "view",
      "type": "function"
    },
    {
      "inputs": [
        {
          "internalType": "uint256",
          "name": "_tokenId",
          "type": "uint256"
        }
      ],
      "name": "hasCreatorToken",
      "outputs": [
        {
          "internalType": "bool",
          "name": "",
          "type": "bool"
        }
      ],
      "stateMutability": "view",
      "type": "function"
    },
    {
      "inputs": [
        {
          "internalType": "address",
          "name": "account",
          "type": "address"
        },
        {
          "internalType": "address",
          "name": "operator",
          "type": "address"
        }
      ],
      "name": "isApprovedForAll",
      "outputs": [
        {
          "internalType": "bool",
          "name": "",
          "type": "bool"
        }
      ],
      "stateMutability": "view",
      "type": "function"
    },
    {
      "inputs": [
        {
          "internalType": "string",
          "name": "_handle",
          "type": "string"
        }
      ],
      "name": "isHandleExist",
      "outputs": [
        {
          "internalType": "bool",
          "name": "_isHandleExist",
          "type": "bool"
        }
      ],
      "stateMutability": "view",
      "type": "function"
    },
    {
      "inputs": [
        {
          "internalType": "uint256",
          "name": "profileId",
          "type": "uint256"
        }
      ],
      "name": "mintCreatorToken",
      "outputs": [],
      "stateMutability": "nonpayable",
      "type": "function"
    },
    {
      "inputs": [],
      "name": "owner",
      "outputs": [
        {
          "internalType": "address",
          "name": "",
          "type": "address"
        }
      ],
      "stateMutability": "view",
      "type": "function"
    },
    {
      "inputs": [],
      "name": "renounceOwnership",
      "outputs": [],
      "stateMutability": "nonpayable",
      "type": "function"
    },
    {
      "inputs": [
        {
          "internalType": "address",
          "name": "from",
          "type": "address"
        },
        {
          "internalType": "address",
          "name": "to",
          "type": "address"
        },
        {
          "internalType": "uint256[]",
          "name": "ids",
          "type": "uint256[]"
        },
        {
          "internalType": "uint256[]",
          "name": "amounts",
          "type": "uint256[]"
        },
        {
          "internalType": "bytes",
          "name": "data",
          "type": "bytes"
        }
      ],
      "name": "safeBatchTransferFrom",
      "outputs": [],
      "stateMutability": "nonpayable",
      "type": "function"
    },
    {
      "inputs": [
        {
          "internalType": "address",
          "name": "from",
          "type": "address"
        },
        {
          "internalType": "address",
          "name": "to",
          "type": "address"
        },
        {
          "internalType": "uint256",
          "name": "id",
          "type": "uint256"
        },
        {
          "internalType": "uint256",
          "name": "amount",
          "type": "uint256"
        },
        {
          "internalType": "bytes",
          "name": "data",
          "type": "bytes"
        }
      ],
      "name": "safeTransferFrom",
      "outputs": [],
      "stateMutability": "nonpayable",
      "type": "function"
    },
    {
      "inputs": [
        {
          "internalType": "string",
          "name": "_handle",
          "type": "string"
        }
      ],
      "name": "searchProfile",
      "outputs": [
        {
          "components": [
            {
              "internalType": "string",
              "name": "name",
              "type": "string"
            },
            {
              "internalType": "string",
              "name": "handle",
              "type": "string"
            },
            {
              "internalType": "string",
              "name": "bio",
              "type": "string"
            },
            {
              "internalType": "string",
              "name": "profileImageUrl",
              "type": "string"
            },
            {
              "internalType": "string",
              "name": "coverImageUrl",
              "type": "string"
            },
            {
              "internalType": "uint256",
              "name": "followerCount",
              "type": "uint256"
            },
            {
              "internalType": "uint256",
              "name": "followingCount",
              "type": "uint256"
            },
            {
              "internalType": "uint256",
              "name": "postCount",
              "type": "uint256"
            },
            {
              "internalType": "string",
              "name": "followerMetaData",
              "type": "string"
            },
            {
              "internalType": "string",
              "name": "followingMetaData",
              "type": "string"
            },
            {
              "internalType": "string",
              "name": "postMetaData",
              "type": "string"
            },
            {
              "internalType": "bool",
              "name": "profileExist",
              "type": "bool"
            },
            {
              "internalType": "uint256",
              "name": "tokenId",
              "type": "uint256"
            }
          ],
          "internalType": "struct Elpis.Profile",
          "name": "_user",
          "type": "tuple"
        }
      ],
      "stateMutability": "view",
      "type": "function"
    },
    {
      "inputs": [
        {
          "internalType": "address",
          "name": "operator",
          "type": "address"
        },
        {
          "internalType": "bool",
          "name": "approved",
          "type": "bool"
        }
      ],
      "name": "setApprovalForAll",
      "outputs": [],
      "stateMutability": "nonpayable",
      "type": "function"
    },
    {
      "inputs": [
        {
          "internalType": "string",
          "name": "newuri",
          "type": "string"
        }
      ],
      "name": "setURI",
      "outputs": [],
      "stateMutability": "nonpayable",
      "type": "function"
    },
    {
      "inputs": [
        {
          "internalType": "bytes4",
          "name": "interfaceId",
          "type": "bytes4"
        }
      ],
      "name": "supportsInterface",
      "outputs": [
        {
          "internalType": "bool",
          "name": "",
          "type": "bool"
        }
      ],
      "stateMutability": "view",
      "type": "function"
    },
    {
      "inputs": [
        {
          "internalType": "address",
          "name": "newOwner",
          "type": "address"
        }
      ],
      "name": "transferOwnership",
      "outputs": [],
      "stateMutability": "nonpayable",
      "type": "function"
    },
    {
      "inputs": [
        {
          "internalType": "uint256",
          "name": "",
          "type": "uint256"
        }
      ],
      "name": "uri",
      "outputs": [
        {
          "internalType": "string",
          "name": "",
          "type": "string"
        }
      ],
      "stateMutability": "view",
      "type": "function"
    }
  ],
  "bytecode": "0x60806040523480156200001157600080fd5b506040516200399b3803806200399b833981016040819052620000349162000191565b6040805160208101909152600081526200004e8162000080565b506200005a3362000099565b600980546001600160a01b0319166001600160a01b039290921691909117905562000200565b805162000095906002906020840190620000eb565b5050565b600380546001600160a01b038381166001600160a01b0319831681179093556040519116919082907f8be0079c531659141344cd1fd0a4f28419497f9722a3daafe3b4186f6b6457e090600090a35050565b828054620000f990620001c3565b90600052602060002090601f0160209004810192826200011d576000855562000168565b82601f106200013857805160ff191683800117855562000168565b8280016001018555821562000168579182015b82811115620001685782518255916020019190600101906200014b565b50620001769291506200017a565b5090565b5b808211156200017657600081556001016200017b565b600060208284031215620001a457600080fd5b81516001600160a01b0381168114620001bc57600080fd5b9392505050565b600181811c90821680620001d857607f821691505b60208210811415620001fa57634e487b7160e01b600052602260045260246000fd5b50919050565b61378b80620002106000396000f3fe608060405234801561001057600080fd5b50600436106101725760003560e01c806375b97ed1116100de578063bbeadf9e11610097578063decb518511610071578063decb518514610339578063e985e9c51461034c578063f242432a14610388578063f2fde38b1461039b57600080fd5b8063bbeadf9e1461030b578063c6365c4c1461031e578063d6afc9b11461033157600080fd5b806375b97ed11461029c5780638ad91345146102af5780638da5cb5b146102c2578063a22cb465146102dd578063a6322819146102f0578063a9c63aa01461030357600080fd5b80632eb2c2d6116101305780632eb2c2d61461021b5780633b622f411461022e578063458ac54a146102415780634694150a146102545780634e1273f414610274578063715018a61461029457600080fd5b8062fdd58e1461017757806301ffc9a71461019d57806302fe5305146101c05780630e89341c146101d5578063144bedc4146101f55780631e01043914610208575b600080fd5b61018a6101853660046129ed565b6103ae565b6040519081526020015b60405180910390f35b6101b06101ab366004612a2d565b610444565b6040519015158152602001610194565b6101d36101ce366004612b0f565b610496565b005b6101e86101e3366004612b4b565b6104aa565b6040516101949190612bc0565b6101d3610203366004612bd3565b61053e565b61018a610216366004612b4b565b6105c7565b6101d3610229366004612c93565b6105db565b6101b061023c366004612b4b565b610627565b6101d361024f366004612d3c565b610649565b610267610262366004612b0f565b610834565b6040516101949190612dc3565b610287610282366004612f02565b610dcd565b6040516101949190613007565b6101d3610ef6565b6101d36102aa36600461301a565b610f0a565b6101e86102bd366004612b4b565b610f99565b6003546040516001600160a01b039091168152602001610194565b6101d36102eb366004613073565b61101c565b6101d36102fe366004612b0f565b61102b565b60085461018a565b6101d3610319366004612b4b565b6110cc565b6101e861032c3660046130af565b6110f3565b61026761140a565b6101b0610347366004612b0f565b611956565b6101b061035a3660046131a3565b6001600160a01b03918216600090815260016020908152604080832093909416825291909152205460ff1690565b6101d36103963660046131cd565b611998565b6101d36103a9366004613231565b6119dd565b60006001600160a01b03831661041e5760405162461bcd60e51b815260206004820152602a60248201527f455243313135353a2061646472657373207a65726f206973206e6f742061207660448201526930b634b21037bbb732b960b11b60648201526084015b60405180910390fd5b506000908152602081815260408083206001600160a01b03949094168352929052205490565b60006001600160e01b03198216636cdb3d1360e11b148061047557506001600160e01b031982166303a24d0760e21b145b8061049057506301ffc9a760e01b6001600160e01b03198316145b92915050565b61049e611a53565b6104a781611aad565b50565b6060600280546104b99061324c565b80601f01602080910402602001604051908101604052809291908181526020018280546104e59061324c565b80156105325780601f1061050757610100808354040283529160200191610532565b820191906000526020600020905b81548152906001019060200180831161051557829003601f168201915b50505050509050919050565b604051637921219560e11b81526001600160a01b03821660048201523360248201526044810183905260016064820181905260a0608483015260a4820152600160fd1b60c4820152309063f242432a9060e401600060405180830381600087803b1580156105ab57600080fd5b505af11580156105bf573d6000803e3d6000fd5b505050505050565b6000806105d433846103ae565b9392505050565b6001600160a01b0385163314806105f757506105f7853361035a565b6106135760405162461bcd60e51b815260040161041590613287565b6106208585858585611ac0565b5050505050565b600080610633836105c7565b111561064157506001919050565b506000919050565b61065283611c95565b60006005600060068660405161066891906132d6565b9081526040805160209281900383019020546001600160a01b031683529082019290925201600020600c0154905061069f81610627565b6106e45760405162461bcd60e51b81526020600482015260166024820152752cb7ba903732b2b21021b932b0ba37b9103a37b5b2b760511b6044820152606401610415565b82600560006006876040516106f991906132d6565b9081526040805160209281900383019020546001600160a01b0316835282820193909352910160002082516107389360089092019291909101906128ce565b5060016005600060068760405161074f91906132d6565b9081526040805160209281900383019020546001600160a01b0316835290820192909252016000908120600501805490919061078c908490613308565b909155505033600090815260056020908152604090912083516107b7926009909201918501906128ce565b503360009081526005602052604081206006018054600192906107db908490613308565b9091555050336000908152600560205260409081902090517f8cdd3ba8c3b34319b5b41d79769ffd341e01d7849b27de2c28a2643663080aef916108269160019091019087906133c0565b60405180910390a150505050565b61083c612952565b60006001600160a01b031660068360405161085791906132d6565b908152604051908190036020019020546001600160a01b031614156108b95760405162461bcd60e51b815260206004820152601860248201527750726f66696c6520646f6573206e6f74206578697374212160401b6044820152606401610415565b600560006006846040516108cd91906132d6565b9081526040805160209281900383019020546001600160a01b0316835290820192909252810160002081516101a0810190925280548290829061090f9061324c565b80601f016020809104026020016040519081016040528092919081815260200182805461093b9061324c565b80156109885780601f1061095d57610100808354040283529160200191610988565b820191906000526020600020905b81548152906001019060200180831161096b57829003601f168201915b505050505081526020016001820180546109a19061324c565b80601f01602080910402602001604051908101604052809291908181526020018280546109cd9061324c565b8015610a1a5780601f106109ef57610100808354040283529160200191610a1a565b820191906000526020600020905b8154815290600101906020018083116109fd57829003601f168201915b50505050508152602001600282018054610a339061324c565b80601f0160208091040260200160405190810160405280929190818152602001828054610a5f9061324c565b8015610aac5780601f10610a8157610100808354040283529160200191610aac565b820191906000526020600020905b815481529060010190602001808311610a8f57829003601f168201915b50505050508152602001600382018054610ac59061324c565b80601f0160208091040260200160405190810160405280929190818152602001828054610af19061324c565b8015610b3e5780601f10610b1357610100808354040283529160200191610b3e565b820191906000526020600020905b815481529060010190602001808311610b2157829003601f168201915b50505050508152602001600482018054610b579061324c565b80601f0160208091040260200160405190810160405280929190818152602001828054610b839061324c565b8015610bd05780601f10610ba557610100808354040283529160200191610bd0565b820191906000526020600020905b815481529060010190602001808311610bb357829003601f168201915b50505050508152602001600582015481526020016006820154815260200160078201548152602001600882018054610c079061324c565b80601f0160208091040260200160405190810160405280929190818152602001828054610c339061324c565b8015610c805780601f10610c5557610100808354040283529160200191610c80565b820191906000526020600020905b815481529060010190602001808311610c6357829003601f168201915b50505050508152602001600982018054610c999061324c565b80601f0160208091040260200160405190810160405280929190818152602001828054610cc59061324c565b8015610d125780601f10610ce757610100808354040283529160200191610d12565b820191906000526020600020905b815481529060010190602001808311610cf557829003601f168201915b50505050508152602001600a82018054610d2b9061324c565b80601f0160208091040260200160405190810160405280929190818152602001828054610d579061324c565b8015610da45780601f10610d7957610100808354040283529160200191610da4565b820191906000526020600020905b815481529060010190602001808311610d8757829003601f168201915b5050509183525050600b82015460ff1615156020820152600c9091015460409091015292915050565b60608151835114610e325760405162461bcd60e51b815260206004820152602960248201527f455243313135353a206163636f756e747320616e6420696473206c656e677468604482015268040dad2e6dac2e8c6d60bb1b6064820152608401610415565b600083516001600160401b03811115610e4d57610e4d612a4a565b604051908082528060200260200182016040528015610e76578160200160208202803683370190505b50905060005b8451811015610eee57610ec1858281518110610e9a57610e9a6133ee565b6020026020010151858381518110610eb457610eb46133ee565b60200260200101516103ae565b828281518110610ed357610ed36133ee565b6020908102919091010152610ee781613404565b9050610e7c565b509392505050565b610efe611a53565b610f0860006122dd565b565b6000600683604051610f1c91906132d6565b9081526040805160209281900383019020546001600160a01b0316600081815260058452919091208451919350610f5c92600a90910191908501906128ce565b507f6819b30a8035cdaf9ee21f913a815e598603d80418073b6462ff68495b5bafc583604051610f8c9190612bc0565b60405180910390a1505050565b600954604051638ad9134560e01b8152600481018390526060916001600160a01b031690638ad9134590602401600060405180830381600087803b158015610fe057600080fd5b505af1158015610ff4573d6000803e3d6000fd5b505050506040513d6000823e601f3d908101601f19168201604052610490919081019061341f565b61102733838361232f565b5050565b336000908152600560209081526040909120825161105192600a909201918401906128ce565b50336000908152600560205260408120600701805460019290611075908490613308565b90915550503360009081526005602052604090819020600781015491517f8bed420d642f3f71000caf554c0351ced19dc5b0dd8632f5f586e077995ded67926110c192600101916134a0565b60405180910390a150565b6110e83382606460405180602001604052806000815250612410565b6104a730600161101c565b336000908152600560205260409020600b015460609060ff161561114d5760405162461bcd60e51b815260206004820152601160248201527050726f66696c652020657869737473212160781b6044820152606401610415565b61115b600480546001019055565b600061116660045490565b9050611170612952565b8881526020808201899052604080830189905260608301889052608083018790526001610160840152610180830184905233600090815260058352208251805184936111c09284929101906128ce565b5060208281015180516111d992600185019201906128ce565b50604082015180516111f59160028401916020909101906128ce565b50606082015180516112119160038401916020909101906128ce565b506080820151805161122d9160048401916020909101906128ce565b5060a0820151600582015560c0820151600682015560e0820151600782015561010082015180516112689160088401916020909101906128ce565b5061012082015180516112859160098401916020909101906128ce565b5061014082015180516112a291600a8401916020909101906128ce565b50610160820151600b8201805460ff191691151591909117905561018090910151600c9091015560405133906006906112dc908b906132d6565b908152602001604051809103902060006101000a8154816001600160a01b0302191690836001600160a01b031602179055506001600860008282546113219190613308565b909155506113309050826110cc565b600954604051630ee12ff960e31b81526001600160a01b03909116906377097fc89061136290859088906004016134c2565b602060405180830381600087803b15801561137c57600080fd5b505af1158015611390573d6000803e3d6000fd5b505050506040513d601f19601f820116820180604052508101906113b491906134db565b50336001600160a01b03167f48cd04660754343a75aabc83899998826b6c3fc1c623d3cfb42bcd3e465cfa3c82602001516040516113f29190612bc0565b60405180910390a26020015198975050505050505050565b611412612952565b336000908152600560205260409020600b015460ff1661146f5760405162461bcd60e51b815260206004820152601860248201527750726f66696c6520646f6573206e6f74206578697374212160401b6044820152606401610415565b336000908152600560205260409081902081516101a081019092528054829082906114999061324c565b80601f01602080910402602001604051908101604052809291908181526020018280546114c59061324c565b80156115125780601f106114e757610100808354040283529160200191611512565b820191906000526020600020905b8154815290600101906020018083116114f557829003601f168201915b5050505050815260200160018201805461152b9061324c565b80601f01602080910402602001604051908101604052809291908181526020018280546115579061324c565b80156115a45780601f10611579576101008083540402835291602001916115a4565b820191906000526020600020905b81548152906001019060200180831161158757829003601f168201915b505050505081526020016002820180546115bd9061324c565b80601f01602080910402602001604051908101604052809291908181526020018280546115e99061324c565b80156116365780601f1061160b57610100808354040283529160200191611636565b820191906000526020600020905b81548152906001019060200180831161161957829003601f168201915b5050505050815260200160038201805461164f9061324c565b80601f016020809104026020016040519081016040528092919081815260200182805461167b9061324c565b80156116c85780601f1061169d576101008083540402835291602001916116c8565b820191906000526020600020905b8154815290600101906020018083116116ab57829003601f168201915b505050505081526020016004820180546116e19061324c565b80601f016020809104026020016040519081016040528092919081815260200182805461170d9061324c565b801561175a5780601f1061172f5761010080835404028352916020019161175a565b820191906000526020600020905b81548152906001019060200180831161173d57829003601f168201915b505050505081526020016005820154815260200160068201548152602001600782015481526020016008820180546117919061324c565b80601f01602080910402602001604051908101604052809291908181526020018280546117bd9061324c565b801561180a5780601f106117df5761010080835404028352916020019161180a565b820191906000526020600020905b8154815290600101906020018083116117ed57829003601f168201915b505050505081526020016009820180546118239061324c565b80601f016020809104026020016040519081016040528092919081815260200182805461184f9061324c565b801561189c5780601f106118715761010080835404028352916020019161189c565b820191906000526020600020905b81548152906001019060200180831161187f57829003601f168201915b50505050508152602001600a820180546118b59061324c565b80601f01602080910402602001604051908101604052809291908181526020018280546118e19061324c565b801561192e5780601f106119035761010080835404028352916020019161192e565b820191906000526020600020905b81548152906001019060200180831161191157829003601f168201915b5050509183525050600b82015460ff1615156020820152600c90910154604090910152919050565b6000806001600160a01b031660068360405161197291906132d6565b908152604051908190036020019020546001600160a01b03161461064157506001919050565b6001600160a01b0385163314806119b457506119b4853361035a565b6119d05760405162461bcd60e51b815260040161041590613287565b6106208585858585612524565b6119e5611a53565b6001600160a01b038116611a4a5760405162461bcd60e51b815260206004820152602660248201527f4f776e61626c653a206e6577206f776e657220697320746865207a65726f206160448201526564647265737360d01b6064820152608401610415565b6104a7816122dd565b6003546001600160a01b03163314610f085760405162461bcd60e51b815260206004820181905260248201527f4f776e61626c653a2063616c6c6572206973206e6f7420746865206f776e65726044820152606401610415565b80516110279060029060208401906128ce565b8151835114611b225760405162461bcd60e51b815260206004820152602860248201527f455243313135353a2069647320616e6420616d6f756e7473206c656e677468206044820152670dad2e6dac2e8c6d60c31b6064820152608401610415565b6001600160a01b038416611b485760405162461bcd60e51b8152600401610415906134f4565b3360005b8451811015611c2f576000858281518110611b6957611b696133ee565b602002602001015190506000858381518110611b8757611b876133ee565b602090810291909101810151600084815280835260408082206001600160a01b038e168352909352919091205490915081811015611bd75760405162461bcd60e51b815260040161041590613539565b6000838152602081815260408083206001600160a01b038e8116855292528083208585039055908b16825281208054849290611c14908490613308565b9250508190555050505080611c2890613404565b9050611b4c565b50846001600160a01b0316866001600160a01b0316826001600160a01b03167f4a39dc06d4c0dbc64b70af90fd698a233a518aa5d07e595d983b8c0526c8f7fb8787604051611c7f929190613583565b60405180910390a46105bf81878787878761264e565b336000908152600560205260409020600b015460ff16611cf75760405162461bcd60e51b815260206004820152601760248201527f596f7520646f6e277420686176652070726f66696c652e0000000000000000006044820152606401610415565b611d0081611956565b50600060056000600684604051611d1791906132d6565b9081526040805160209281900383019020546001600160a01b0316835290820192909252810160002081516101a08101909252805482908290611d599061324c565b80601f0160208091040260200160405190810160405280929190818152602001828054611d859061324c565b8015611dd25780601f10611da757610100808354040283529160200191611dd2565b820191906000526020600020905b815481529060010190602001808311611db557829003601f168201915b50505050508152602001600182018054611deb9061324c565b80601f0160208091040260200160405190810160405280929190818152602001828054611e179061324c565b8015611e645780601f10611e3957610100808354040283529160200191611e64565b820191906000526020600020905b815481529060010190602001808311611e4757829003601f168201915b50505050508152602001600282018054611e7d9061324c565b80601f0160208091040260200160405190810160405280929190818152602001828054611ea99061324c565b8015611ef65780601f10611ecb57610100808354040283529160200191611ef6565b820191906000526020600020905b815481529060010190602001808311611ed957829003601f168201915b50505050508152602001600382018054611f0f9061324c565b80601f0160208091040260200160405190810160405280929190818152602001828054611f3b9061324c565b8015611f885780601f10611f5d57610100808354040283529160200191611f88565b820191906000526020600020905b815481529060010190602001808311611f6b57829003601f168201915b50505050508152602001600482018054611fa19061324c565b80601f0160208091040260200160405190810160405280929190818152602001828054611fcd9061324c565b801561201a5780601f10611fef5761010080835404028352916020019161201a565b820191906000526020600020905b815481529060010190602001808311611ffd57829003601f168201915b505050505081526020016005820154815260200160068201548152602001600782015481526020016008820180546120519061324c565b80601f016020809104026020016040519081016040528092919081815260200182805461207d9061324c565b80156120ca5780601f1061209f576101008083540402835291602001916120ca565b820191906000526020600020905b8154815290600101906020018083116120ad57829003601f168201915b505050505081526020016009820180546120e39061324c565b80601f016020809104026020016040519081016040528092919081815260200182805461210f9061324c565b801561215c5780601f106121315761010080835404028352916020019161215c565b820191906000526020600020905b81548152906001019060200180831161213f57829003601f168201915b50505050508152602001600a820180546121759061324c565b80601f01602080910402602001604051908101604052809291908181526020018280546121a19061324c565b80156121ee5780601f106121c3576101008083540402835291602001916121ee565b820191906000526020600020905b8154815290600101906020018083116121d157829003601f168201915b5050509183525050600b82015460ff1615156020820152600c909101546040909101526101808101519091506000612225826105c7565b905080156122755760405162461bcd60e51b815260206004820181905260248201527f596f752063616e6e6f7420666f6c6c6f7720746869732070726f66696c6521216044820152606401610415565b6122ac83610180015160068660405161228e91906132d6565b908152604051908190036020019020546001600160a01b031661053e565b604051600181527faf05fd25758f8533d1288cf1148311ce3a1bf0cb68a806f99809babce20af12390602001610826565b600380546001600160a01b038381166001600160a01b0319831681179093556040519116919082907f8be0079c531659141344cd1fd0a4f28419497f9722a3daafe3b4186f6b6457e090600090a35050565b816001600160a01b0316836001600160a01b031614156123a35760405162461bcd60e51b815260206004820152602960248201527f455243313135353a2073657474696e6720617070726f76616c20737461747573604482015268103337b91039b2b63360b91b6064820152608401610415565b6001600160a01b03838116600081815260016020908152604080832094871680845294825291829020805460ff191686151590811790915591519182527f17307eab39ab6107e8899845ad3d59bd9653f200f220920489ca2b5937696c31910160405180910390a3505050565b6001600160a01b0384166124705760405162461bcd60e51b815260206004820152602160248201527f455243313135353a206d696e7420746f20746865207a65726f206164647265736044820152607360f81b6064820152608401610415565b33600061247c856127b9565b90506000612489856127b9565b90506000868152602081815260408083206001600160a01b038b168452909152812080548792906124bb908490613308565b909155505060408051878152602081018790526001600160a01b03808a1692600092918716917fc3d58168c5ae7397731d063d5bbf3d657854427343f4c083240f7aacaa2d0f62910160405180910390a461251b83600089898989612804565b50505050505050565b6001600160a01b03841661254a5760405162461bcd60e51b8152600401610415906134f4565b336000612556856127b9565b90506000612563856127b9565b90506000868152602081815260408083206001600160a01b038c168452909152902054858110156125a65760405162461bcd60e51b815260040161041590613539565b6000878152602081815260408083206001600160a01b038d8116855292528083208985039055908a168252812080548892906125e3908490613308565b909155505060408051888152602081018890526001600160a01b03808b16928c821692918816917fc3d58168c5ae7397731d063d5bbf3d657854427343f4c083240f7aacaa2d0f62910160405180910390a4612643848a8a8a8a8a612804565b505050505050505050565b6001600160a01b0384163b156105bf5760405163bc197c8160e01b81526001600160a01b0385169063bc197c819061269290899089908890889088906004016135a8565b602060405180830381600087803b1580156126ac57600080fd5b505af19250505080156126dc575060408051601f3d908101601f191682019092526126d991810190613606565b60015b612789576126e8613623565b806308c379a0141561272257506126fd61363f565b806127085750612724565b8060405162461bcd60e51b81526004016104159190612bc0565b505b60405162461bcd60e51b815260206004820152603460248201527f455243313135353a207472616e7366657220746f206e6f6e20455243313135356044820152732932b1b2b4bb32b91034b6b83632b6b2b73a32b960611b6064820152608401610415565b6001600160e01b0319811663bc197c8160e01b1461251b5760405162461bcd60e51b8152600401610415906136c8565b604080516001808252818301909252606091600091906020808301908036833701905050905082816000815181106127f3576127f36133ee565b602090810291909101015292915050565b6001600160a01b0384163b156105bf5760405163f23a6e6160e01b81526001600160a01b0385169063f23a6e61906128489089908990889088908890600401613710565b602060405180830381600087803b15801561286257600080fd5b505af1925050508015612892575060408051601f3d908101601f1916820190925261288f91810190613606565b60015b61289e576126e8613623565b6001600160e01b0319811663f23a6e6160e01b1461251b5760405162461bcd60e51b8152600401610415906136c8565b8280546128da9061324c565b90600052602060002090601f0160209004810192826128fc5760008555612942565b82601f1061291557805160ff1916838001178555612942565b82800160010185558215612942579182015b82811115612942578251825591602001919060010190612927565b5061294e9291506129bc565b5090565b604051806101a001604052806060815260200160608152602001606081526020016060815260200160608152602001600081526020016000815260200160008152602001606081526020016060815260200160608152602001600015158152602001600081525090565b5b8082111561294e57600081556001016129bd565b80356001600160a01b03811681146129e857600080fd5b919050565b60008060408385031215612a0057600080fd5b612a09836129d1565b946020939093013593505050565b6001600160e01b0319811681146104a757600080fd5b600060208284031215612a3f57600080fd5b81356105d481612a17565b634e487b7160e01b600052604160045260246000fd5b601f8201601f191681016001600160401b0381118282101715612a8557612a85612a4a565b6040525050565b60006001600160401b03821115612aa557612aa5612a4a565b50601f01601f191660200190565b600082601f830112612ac457600080fd5b8135612acf81612a8c565b604051612adc8282612a60565b828152856020848701011115612af157600080fd5b82602086016020830137600092810160200192909252509392505050565b600060208284031215612b2157600080fd5b81356001600160401b03811115612b3757600080fd5b612b4384828501612ab3565b949350505050565b600060208284031215612b5d57600080fd5b5035919050565b60005b83811015612b7f578181015183820152602001612b67565b83811115612b8e576000848401525b50505050565b60008151808452612bac816020860160208601612b64565b601f01601f19169290920160200192915050565b6020815260006105d46020830184612b94565b60008060408385031215612be657600080fd5b82359150612bf6602084016129d1565b90509250929050565b60006001600160401b03821115612c1857612c18612a4a565b5060051b60200190565b600082601f830112612c3357600080fd5b81356020612c4082612bff565b604051612c4d8282612a60565b83815260059390931b8501820192828101915086841115612c6d57600080fd5b8286015b84811015612c885780358352918301918301612c71565b509695505050505050565b600080600080600060a08688031215612cab57600080fd5b612cb4866129d1565b9450612cc2602087016129d1565b935060408601356001600160401b0380821115612cde57600080fd5b612cea89838a01612c22565b94506060880135915080821115612d0057600080fd5b612d0c89838a01612c22565b93506080880135915080821115612d2257600080fd5b50612d2f88828901612ab3565b9150509295509295909350565b600080600060608486031215612d5157600080fd5b83356001600160401b0380821115612d6857600080fd5b612d7487838801612ab3565b94506020860135915080821115612d8a57600080fd5b612d9687838801612ab3565b93506040860135915080821115612dac57600080fd5b50612db986828701612ab3565b9150509250925092565b60208152600082516101a0806020850152612de26101c0850183612b94565b91506020850151601f1980868503016040870152612e008483612b94565b93506040870151915080868503016060870152612e1d8483612b94565b93506060870151915080868503016080870152612e3a8483612b94565b935060808701519150808685030160a0870152612e578483612b94565b935060a087015160c087015260c087015160e087015260e08701519150610100828188015280880151925050610120818786030181880152612e998584612b94565b945080880151925050610140818786030181880152612eb88584612b94565b945080880151925050610160818786030181880152612ed78584612b94565b94508088015192505050610180612ef18187018315159052565b959095015193019290925250919050565b60008060408385031215612f1557600080fd5b82356001600160401b0380821115612f2c57600080fd5b818501915085601f830112612f4057600080fd5b81356020612f4d82612bff565b604051612f5a8282612a60565b83815260059390931b8501820192828101915089841115612f7a57600080fd5b948201945b83861015612f9f57612f90866129d1565b82529482019490820190612f7f565b96505086013592505080821115612fb557600080fd5b50612fc285828601612c22565b9150509250929050565b600081518084526020808501945080840160005b83811015612ffc57815187529582019590820190600101612fe0565b509495945050505050565b6020815260006105d46020830184612fcc565b6000806040838503121561302d57600080fd5b82356001600160401b038082111561304457600080fd5b61305086838701612ab3565b9350602085013591508082111561306657600080fd5b50612fc285828601612ab3565b6000806040838503121561308657600080fd5b61308f836129d1565b9150602083013580151581146130a457600080fd5b809150509250929050565b60008060008060008060c087890312156130c857600080fd5b86356001600160401b03808211156130df57600080fd5b6130eb8a838b01612ab3565b9750602089013591508082111561310157600080fd5b61310d8a838b01612ab3565b9650604089013591508082111561312357600080fd5b61312f8a838b01612ab3565b9550606089013591508082111561314557600080fd5b6131518a838b01612ab3565b9450608089013591508082111561316757600080fd5b6131738a838b01612ab3565b935060a089013591508082111561318957600080fd5b5061319689828a01612ab3565b9150509295509295509295565b600080604083850312156131b657600080fd5b6131bf836129d1565b9150612bf6602084016129d1565b600080600080600060a086880312156131e557600080fd5b6131ee866129d1565b94506131fc602087016129d1565b9350604086013592506060860135915060808601356001600160401b0381111561322557600080fd5b612d2f88828901612ab3565b60006020828403121561324357600080fd5b6105d4826129d1565b600181811c9082168061326057607f821691505b6020821081141561328157634e487b7160e01b600052602260045260246000fd5b50919050565b6020808252602f908201527f455243313135353a2063616c6c6572206973206e6f7420746f6b656e206f776e60408201526e195c881b9bdc88185c1c1c9bdd9959608a1b606082015260800190565b600082516132e8818460208701612b64565b9190910192915050565b634e487b7160e01b600052601160045260246000fd5b6000821982111561331b5761331b6132f2565b500190565b8054600090600181811c908083168061333a57607f831692505b602080841082141561335c57634e487b7160e01b600052602260045260246000fd5b838852602088018280156133775760018114613388576133b3565b60ff198716825282820197506133b3565b60008981526020902060005b878110156133ad57815484820152908601908401613394565b83019850505b5050505050505092915050565b6040815260006133d36040830185613320565b82810360208401526133e58185612b94565b95945050505050565b634e487b7160e01b600052603260045260246000fd5b6000600019821415613418576134186132f2565b5060010190565b60006020828403121561343157600080fd5b81516001600160401b0381111561344757600080fd5b8201601f8101841361345857600080fd5b805161346381612a8c565b6040516134708282612a60565b82815286602084860101111561348557600080fd5b613496836020830160208701612b64565b9695505050505050565b6040815260006134b36040830185613320565b90508260208301529392505050565b828152604060208201526000612b436040830184612b94565b6000602082840312156134ed57600080fd5b5051919050565b60208082526025908201527f455243313135353a207472616e7366657220746f20746865207a65726f206164604082015264647265737360d81b606082015260800190565b6020808252602a908201527f455243313135353a20696e73756666696369656e742062616c616e636520666f60408201526939103a3930b739b332b960b11b606082015260800190565b6040815260006135966040830185612fcc565b82810360208401526133e58185612fcc565b6001600160a01b0386811682528516602082015260a0604082018190526000906135d490830186612fcc565b82810360608401526135e68186612fcc565b905082810360808401526135fa8185612b94565b98975050505050505050565b60006020828403121561361857600080fd5b81516105d481612a17565b600060033d111561363c5760046000803e5060005160e01c5b90565b600060443d101561364d5790565b6040516003193d81016004833e81513d6001600160401b03816024840111818411171561367c57505050505090565b82850191508151818111156136945750505050505090565b843d87010160208285010111156136ae5750505050505090565b6136bd60208286010187612a60565b509095945050505050565b60208082526028908201527f455243313135353a204552433131353552656365697665722072656a656374656040820152676420746f6b656e7360c01b606082015260800190565b6001600160a01b03868116825285166020820152604081018490526060810183905260a06080820181905260009061374a90830184612b94565b97965050505050505056fea2646970667358221220b81a38e07343051e9704e21ad8267e41ad019a662526033d6aa8e2f3b43d586464736f6c63430008090033",
  "linkReferences": {},
  "deployedLinkReferences": {}
}