{
  "_format": "hh-sol-artifact-1",
  "contractName": "Elpis",
  "sourceName": "contracts/Elpis.sol",
  "abi": [
    {
      "inputs": [
        {
          "internalType": "address",
          "name": "_nftAddress",
          "type": "address"
        }
      ],
      "stateMutability": "nonpayable",
      "type": "constructor"
    },
    {
      "anonymous": false,
      "inputs": [
        {
          "indexed": false,
          "internalType": "string",
          "name": "handle",
          "type": "string"
        },
        {
          "indexed": false,
          "internalType": "uint256",
          "name": "postCount",
          "type": "uint256"
        }
      ],
      "name": "PostCreated",
      "type": "event"
    },
    {
      "anonymous": false,
      "inputs": [
        {
          "indexed": false,
          "internalType": "string",
          "name": "posthandle",
          "type": "string"
        }
      ],
      "name": "PostInteraction",
      "type": "event"
    },
    {
      "anonymous": false,
      "inputs": [
        {
          "indexed": false,
          "internalType": "string",
          "name": "handle",
          "type": "string"
        },
        {
          "indexed": true,
          "internalType": "address",
          "name": "user",
          "type": "address"
        }
      ],
      "name": "ProfileCreated",
      "type": "event"
    },
    {
      "anonymous": false,
      "inputs": [
        {
          "indexed": false,
          "internalType": "string",
          "name": "follwerhandle",
          "type": "string"
        },
        {
          "indexed": false,
          "internalType": "string",
          "name": "followinghandle",
          "type": "string"
        }
      ],
      "name": "StartedFollowing",
      "type": "event"
    },
    {
      "inputs": [
        {
          "internalType": "string",
          "name": "_postProfileHandle",
          "type": "string"
        },
        {
          "internalType": "string",
          "name": "_postMetadata",
          "type": "string"
        }
      ],
      "name": "addCommentAndLikes",
      "outputs": [],
      "stateMutability": "nonpayable",
      "type": "function"
    },
    {
      "inputs": [
        {
          "internalType": "string",
          "name": "_postMetaData",
          "type": "string"
        },
        {
          "internalType": "string",
          "name": "_tokenURI",
          "type": "string"
        }
      ],
      "name": "addPost",
      "outputs": [],
      "stateMutability": "nonpayable",
      "type": "function"
    },
    {
      "inputs": [
        {
          "internalType": "string",
          "name": "_name",
          "type": "string"
        },
        {
          "internalType": "string",
          "name": "_handle",
          "type": "string"
        },
        {
          "internalType": "string",
          "name": "_bio",
          "type": "string"
        },
        {
          "internalType": "string",
          "name": "_profileImageUrl",
          "type": "string"
        },
        {
          "internalType": "string",
          "name": "_coverImageUrl",
          "type": "string"
        },
        {
          "internalType": "string",
          "name": "_tokenURI",
          "type": "string"
        }
      ],
      "name": "createProfile",
      "outputs": [
        {
          "internalType": "string",
          "name": "userHandle",
          "type": "string"
        }
      ],
      "stateMutability": "nonpayable",
      "type": "function"
    },
    {
      "inputs": [
        {
          "internalType": "string",
          "name": "_handle",
          "type": "string"
        },
        {
          "internalType": "string",
          "name": "_followerMetaData",
          "type": "string"
        },
        {
          "internalType": "string",
          "name": "_followingMetaData",
          "type": "string"
        },
        {
          "internalType": "string",
          "name": "_followertokenUri",
          "type": "string"
        },
        {
          "internalType": "string",
          "name": "_followingtokenUri",
          "type": "string"
        }
      ],
      "name": "followProfile",
      "outputs": [],
      "stateMutability": "nonpayable",
      "type": "function"
    },
    {
      "inputs": [],
      "name": "getProfile",
      "outputs": [
        {
          "components": [
            {
              "internalType": "string",
              "name": "name",
              "type": "string"
            },
            {
              "internalType": "string",
              "name": "handle",
              "type": "string"
            },
            {
              "internalType": "string",
              "name": "bio",
              "type": "string"
            },
            {
              "internalType": "string",
              "name": "profileImageUrl",
              "type": "string"
            },
            {
              "internalType": "string",
              "name": "coverImageUrl",
              "type": "string"
            },
            {
              "internalType": "uint256",
              "name": "followerCount",
              "type": "uint256"
            },
            {
              "internalType": "uint256",
              "name": "followingCount",
              "type": "uint256"
            },
            {
              "internalType": "uint256",
              "name": "postCount",
              "type": "uint256"
            },
            {
              "internalType": "string",
              "name": "followerMetaData",
              "type": "string"
            },
            {
              "internalType": "string",
              "name": "followingMetaData",
              "type": "string"
            },
            {
              "internalType": "string",
              "name": "postMetaData",
              "type": "string"
            },
            {
              "internalType": "bool",
              "name": "profileExist",
              "type": "bool"
            },
            {
              "internalType": "uint256",
              "name": "tokenId",
              "type": "uint256"
            }
          ],
          "internalType": "struct Elpis.Profile",
          "name": "_user",
          "type": "tuple"
        }
      ],
      "stateMutability": "view",
      "type": "function"
    },
    {
      "inputs": [
        {
          "internalType": "uint256",
          "name": "tokenId",
          "type": "uint256"
        }
      ],
      "name": "getTokenUri",
      "outputs": [
        {
          "internalType": "string",
          "name": "",
          "type": "string"
        }
      ],
      "stateMutability": "nonpayable",
      "type": "function"
    },
    {
      "inputs": [],
      "name": "getTotalUser",
      "outputs": [
        {
          "internalType": "uint256",
          "name": "",
          "type": "uint256"
        }
      ],
      "stateMutability": "view",
      "type": "function"
    },
    {
      "inputs": [
        {
          "internalType": "string",
          "name": "_handle",
          "type": "string"
        }
      ],
      "name": "isHandleExist",
      "outputs": [
        {
          "internalType": "bool",
          "name": "_isHandleExist",
          "type": "bool"
        }
      ],
      "stateMutability": "view",
      "type": "function"
    },
    {
      "inputs": [
        {
          "internalType": "string",
          "name": "_handle",
          "type": "string"
        }
      ],
      "name": "searchProfile",
      "outputs": [
        {
          "components": [
            {
              "internalType": "string",
              "name": "name",
              "type": "string"
            },
            {
              "internalType": "string",
              "name": "handle",
              "type": "string"
            },
            {
              "internalType": "string",
              "name": "bio",
              "type": "string"
            },
            {
              "internalType": "string",
              "name": "profileImageUrl",
              "type": "string"
            },
            {
              "internalType": "string",
              "name": "coverImageUrl",
              "type": "string"
            },
            {
              "internalType": "uint256",
              "name": "followerCount",
              "type": "uint256"
            },
            {
              "internalType": "uint256",
              "name": "followingCount",
              "type": "uint256"
            },
            {
              "internalType": "uint256",
              "name": "postCount",
              "type": "uint256"
            },
            {
              "internalType": "string",
              "name": "followerMetaData",
              "type": "string"
            },
            {
              "internalType": "string",
              "name": "followingMetaData",
              "type": "string"
            },
            {
              "internalType": "string",
              "name": "postMetaData",
              "type": "string"
            },
            {
              "internalType": "bool",
              "name": "profileExist",
              "type": "bool"
            },
            {
              "internalType": "uint256",
              "name": "tokenId",
              "type": "uint256"
            }
          ],
          "internalType": "struct Elpis.Profile",
          "name": "_user",
          "type": "tuple"
        }
      ],
      "stateMutability": "view",
      "type": "function"
    }
  ],
  "bytecode": "0x60806040523480156200001157600080fd5b50604051620028bc380380620028bc8339818101604052810190620000379190620000e9565b80600560006101000a81548173ffffffffffffffffffffffffffffffffffffffff021916908373ffffffffffffffffffffffffffffffffffffffff160217905550506200011b565b600080fd5b600073ffffffffffffffffffffffffffffffffffffffff82169050919050565b6000620000b18262000084565b9050919050565b620000c381620000a4565b8114620000cf57600080fd5b50565b600081519050620000e381620000b8565b92915050565b6000602082840312156200010257620001016200007f565b5b60006200011284828501620000d2565b91505092915050565b612791806200012b6000396000f3fe608060405234801561001057600080fd5b50600436106100935760003560e01c8063a9c63aa011610066578063a9c63aa014610130578063b02c65161461014e578063c6365c4c1461016a578063d6afc9b11461019a578063decb5185146101b857610093565b80634694150a146100985780636ae558a1146100c857806375b97ed1146100e45780638ad9134514610100575b600080fd5b6100b260048036038101906100ad9190611ce5565b6101e8565b6040516100bf9190611f34565b60405180910390f35b6100e260048036038101906100dd9190611f56565b610801565b005b6100fe60048036038101906100f9919061205d565b610c3e565b005b61011a60048036038101906101159190612101565b610d14565b6040516101279190612178565b60405180910390f35b610138610dcf565b60405161014591906121a9565b60405180910390f35b6101686004803603810190610163919061205d565b610dd9565b005b610184600480360381019061017f91906121c4565b61101a565b6040516101919190612178565b60405180910390f35b6101a261141a565b6040516101af9190611f34565b60405180910390f35b6101d260048036038101906101cd9190611ce5565b6119d4565b6040516101df9190612308565b60405180910390f35b6101f0611a7e565b600073ffffffffffffffffffffffffffffffffffffffff16600283604051610218919061235f565b908152602001604051809103902060009054906101000a900473ffffffffffffffffffffffffffffffffffffffff1673ffffffffffffffffffffffffffffffffffffffff16141561029e576040517f08c379a0000000000000000000000000000000000000000000000000000000008152600401610295906123c2565b60405180910390fd5b600160006002846040516102b2919061235f565b908152602001604051809103902060009054906101000a900473ffffffffffffffffffffffffffffffffffffffff1673ffffffffffffffffffffffffffffffffffffffff1673ffffffffffffffffffffffffffffffffffffffff168152602001908152602001600020604051806101a001604052908160008201805461033790612411565b80601f016020809104026020016040519081016040528092919081815260200182805461036390612411565b80156103b05780601f10610385576101008083540402835291602001916103b0565b820191906000526020600020905b81548152906001019060200180831161039357829003601f168201915b505050505081526020016001820180546103c990612411565b80601f01602080910402602001604051908101604052809291908181526020018280546103f590612411565b80156104425780601f1061041757610100808354040283529160200191610442565b820191906000526020600020905b81548152906001019060200180831161042557829003601f168201915b5050505050815260200160028201805461045b90612411565b80601f016020809104026020016040519081016040528092919081815260200182805461048790612411565b80156104d45780601f106104a9576101008083540402835291602001916104d4565b820191906000526020600020905b8154815290600101906020018083116104b757829003601f168201915b505050505081526020016003820180546104ed90612411565b80601f016020809104026020016040519081016040528092919081815260200182805461051990612411565b80156105665780601f1061053b57610100808354040283529160200191610566565b820191906000526020600020905b81548152906001019060200180831161054957829003601f168201915b5050505050815260200160048201805461057f90612411565b80601f01602080910402602001604051908101604052809291908181526020018280546105ab90612411565b80156105f85780601f106105cd576101008083540402835291602001916105f8565b820191906000526020600020905b8154815290600101906020018083116105db57829003601f168201915b5050505050815260200160058201548152602001600682015481526020016007820154815260200160088201805461062f90612411565b80601f016020809104026020016040519081016040528092919081815260200182805461065b90612411565b80156106a85780601f1061067d576101008083540402835291602001916106a8565b820191906000526020600020905b81548152906001019060200180831161068b57829003601f168201915b505050505081526020016009820180546106c190612411565b80601f01602080910402602001604051908101604052809291908181526020018280546106ed90612411565b801561073a5780601f1061070f5761010080835404028352916020019161073a565b820191906000526020600020905b81548152906001019060200180831161071d57829003601f168201915b50505050508152602001600a8201805461075390612411565b80601f016020809104026020016040519081016040528092919081815260200182805461077f90612411565b80156107cc5780601f106107a1576101008083540402835291602001916107cc565b820191906000526020600020905b8154815290600101906020018083116107af57829003601f168201915b50505050508152602001600b820160009054906101000a900460ff16151515158152602001600c820154815250509050919050565b8360016000600288604051610816919061235f565b908152602001604051809103902060009054906101000a900473ffffffffffffffffffffffffffffffffffffffff1673ffffffffffffffffffffffffffffffffffffffff1673ffffffffffffffffffffffffffffffffffffffff1681526020019081526020016000206008019080519060200190610895929190611ae8565b5060018060006002886040516108ab919061235f565b908152602001604051809103902060009054906101000a900473ffffffffffffffffffffffffffffffffffffffff1673ffffffffffffffffffffffffffffffffffffffff1673ffffffffffffffffffffffffffffffffffffffff16815260200190815260200160002060050160008282546109269190612472565b9250508190555082600160003373ffffffffffffffffffffffffffffffffffffffff1673ffffffffffffffffffffffffffffffffffffffff1681526020019081526020016000206009019080519060200190610983929190611ae8565b5060018060003373ffffffffffffffffffffffffffffffffffffffff1673ffffffffffffffffffffffffffffffffffffffff16815260200190815260200160002060060160008282546109d69190612472565b92505081905550600560009054906101000a900473ffffffffffffffffffffffffffffffffffffffff1673ffffffffffffffffffffffffffffffffffffffff166357f7789e60016000600289604051610a2f919061235f565b908152602001604051809103902060009054906101000a900473ffffffffffffffffffffffffffffffffffffffff1673ffffffffffffffffffffffffffffffffffffffff1673ffffffffffffffffffffffffffffffffffffffff168152602001908152602001600020600c0154846040518363ffffffff1660e01b8152600401610aba9291906124c8565b600060405180830381600087803b158015610ad457600080fd5b505af1158015610ae8573d6000803e3d6000fd5b50505050600560009054906101000a900473ffffffffffffffffffffffffffffffffffffffff1673ffffffffffffffffffffffffffffffffffffffff166357f7789e600160003373ffffffffffffffffffffffffffffffffffffffff1673ffffffffffffffffffffffffffffffffffffffff168152602001908152602001600020600c0154836040518363ffffffff1660e01b8152600401610b8b9291906124c8565b600060405180830381600087803b158015610ba557600080fd5b505af1158015610bb9573d6000803e3d6000fd5b505050507f8cdd3ba8c3b34319b5b41d79769ffd341e01d7849b27de2c28a2643663080aef600160003373ffffffffffffffffffffffffffffffffffffffff1673ffffffffffffffffffffffffffffffffffffffff16815260200190815260200160002060010186604051610c2f92919061258d565b60405180910390a15050505050565b6000600283604051610c50919061235f565b908152602001604051809103902060009054906101000a900473ffffffffffffffffffffffffffffffffffffffff16905081600160008373ffffffffffffffffffffffffffffffffffffffff1673ffffffffffffffffffffffffffffffffffffffff168152602001908152602001600020600a019080519060200190610cd7929190611ae8565b507f6819b30a8035cdaf9ee21f913a815e598603d80418073b6462ff68495b5bafc583604051610d079190612178565b60405180910390a1505050565b6060600560009054906101000a900473ffffffffffffffffffffffffffffffffffffffff1673ffffffffffffffffffffffffffffffffffffffff16638ad91345836040518263ffffffff1660e01b8152600401610d7191906121a9565b600060405180830381600087803b158015610d8b57600080fd5b505af1158015610d9f573d6000803e3d6000fd5b505050506040513d6000823e3d601f19601f82011682018060405250810190610dc89190612634565b9050919050565b6000600454905090565b81600160003373ffffffffffffffffffffffffffffffffffffffff1673ffffffffffffffffffffffffffffffffffffffff168152602001908152602001600020600a019080519060200190610e2f929190611ae8565b5060018060003373ffffffffffffffffffffffffffffffffffffffff1673ffffffffffffffffffffffffffffffffffffffff1681526020019081526020016000206007016000828254610e829190612472565b92505081905550600560009054906101000a900473ffffffffffffffffffffffffffffffffffffffff1673ffffffffffffffffffffffffffffffffffffffff166357f7789e600160003373ffffffffffffffffffffffffffffffffffffffff1673ffffffffffffffffffffffffffffffffffffffff168152602001908152602001600020600c0154836040518363ffffffff1660e01b8152600401610f289291906124c8565b600060405180830381600087803b158015610f4257600080fd5b505af1158015610f56573d6000803e3d6000fd5b505050507f8bed420d642f3f71000caf554c0351ced19dc5b0dd8632f5f586e077995ded67600160003373ffffffffffffffffffffffffffffffffffffffff1673ffffffffffffffffffffffffffffffffffffffff168152602001908152602001600020600101600160003373ffffffffffffffffffffffffffffffffffffffff1673ffffffffffffffffffffffffffffffffffffffff1681526020019081526020016000206007015460405161100e92919061267d565b60405180910390a15050565b6060600160003373ffffffffffffffffffffffffffffffffffffffff1673ffffffffffffffffffffffffffffffffffffffff168152602001908152602001600020600b0160009054906101000a900460ff16156110ac576040517f08c379a00000000000000000000000000000000000000000000000000000000081526004016110a3906126f9565b60405180910390fd5b6110b66000611a5a565b60006110c26000611a70565b90506110cc611a7e565b888160000181905250878160200181905250868160400181905250858160600181905250848160800181905250600181610160019015159081151581525050818161018001818152505080600160003373ffffffffffffffffffffffffffffffffffffffff1673ffffffffffffffffffffffffffffffffffffffff1681526020019081526020016000206000820151816000019080519060200190611172929190611ae8565b50602082015181600101908051906020019061118f929190611ae8565b5060408201518160020190805190602001906111ac929190611ae8565b5060608201518160030190805190602001906111c9929190611ae8565b5060808201518160040190805190602001906111e6929190611ae8565b5060a0820151816005015560c0820151816006015560e08201518160070155610100820151816008019080519060200190611222929190611ae8565b50610120820151816009019080519060200190611240929190611ae8565b5061014082015181600a01908051906020019061125e929190611ae8565b5061016082015181600b0160006101000a81548160ff02191690831515021790555061018082015181600c01559050503360028960405161129f919061235f565b908152602001604051809103902060006101000a81548173ffffffffffffffffffffffffffffffffffffffff021916908373ffffffffffffffffffffffffffffffffffffffff1602179055506001600460008282546112fe9190612472565b92505081905550600560009054906101000a900473ffffffffffffffffffffffffffffffffffffffff1673ffffffffffffffffffffffffffffffffffffffff166377097fc883866040518363ffffffff1660e01b81526004016113629291906124c8565b602060405180830381600087803b15801561137c57600080fd5b505af1158015611390573d6000803e3d6000fd5b505050506040513d601f19601f820116820180604052508101906113b4919061272e565b503373ffffffffffffffffffffffffffffffffffffffff167f48cd04660754343a75aabc83899998826b6c3fc1c623d3cfb42bcd3e465cfa3c82602001516040516113ff9190612178565b60405180910390a28060200151925050509695505050505050565b611422611a7e565b600160003373ffffffffffffffffffffffffffffffffffffffff1673ffffffffffffffffffffffffffffffffffffffff168152602001908152602001600020600b0160009054906101000a900460ff166114b1576040517f08c379a00000000000000000000000000000000000000000000000000000000081526004016114a8906123c2565b60405180910390fd5b600160003373ffffffffffffffffffffffffffffffffffffffff1673ffffffffffffffffffffffffffffffffffffffff168152602001908152602001600020604051806101a001604052908160008201805461150c90612411565b80601f016020809104026020016040519081016040528092919081815260200182805461153890612411565b80156115855780601f1061155a57610100808354040283529160200191611585565b820191906000526020600020905b81548152906001019060200180831161156857829003601f168201915b5050505050815260200160018201805461159e90612411565b80601f01602080910402602001604051908101604052809291908181526020018280546115ca90612411565b80156116175780601f106115ec57610100808354040283529160200191611617565b820191906000526020600020905b8154815290600101906020018083116115fa57829003601f168201915b5050505050815260200160028201805461163090612411565b80601f016020809104026020016040519081016040528092919081815260200182805461165c90612411565b80156116a95780601f1061167e576101008083540402835291602001916116a9565b820191906000526020600020905b81548152906001019060200180831161168c57829003601f168201915b505050505081526020016003820180546116c290612411565b80601f01602080910402602001604051908101604052809291908181526020018280546116ee90612411565b801561173b5780601f106117105761010080835404028352916020019161173b565b820191906000526020600020905b81548152906001019060200180831161171e57829003601f168201915b5050505050815260200160048201805461175490612411565b80601f016020809104026020016040519081016040528092919081815260200182805461178090612411565b80156117cd5780601f106117a2576101008083540402835291602001916117cd565b820191906000526020600020905b8154815290600101906020018083116117b057829003601f168201915b5050505050815260200160058201548152602001600682015481526020016007820154815260200160088201805461180490612411565b80601f016020809104026020016040519081016040528092919081815260200182805461183090612411565b801561187d5780601f106118525761010080835404028352916020019161187d565b820191906000526020600020905b81548152906001019060200180831161186057829003601f168201915b5050505050815260200160098201805461189690612411565b80601f01602080910402602001604051908101604052809291908181526020018280546118c290612411565b801561190f5780601f106118e45761010080835404028352916020019161190f565b820191906000526020600020905b8154815290600101906020018083116118f257829003601f168201915b50505050508152602001600a8201805461192890612411565b80601f016020809104026020016040519081016040528092919081815260200182805461195490612411565b80156119a15780601f10611976576101008083540402835291602001916119a1565b820191906000526020600020905b81548152906001019060200180831161198457829003601f168201915b50505050508152602001600b820160009054906101000a900460ff16151515158152602001600c82015481525050905090565b60008073ffffffffffffffffffffffffffffffffffffffff166002836040516119fd919061235f565b908152602001604051809103902060009054906101000a900473ffffffffffffffffffffffffffffffffffffffff1673ffffffffffffffffffffffffffffffffffffffff1614611a505760019050611a55565b600090505b919050565b6001816000016000828254019250508190555050565b600081600001549050919050565b604051806101a001604052806060815260200160608152602001606081526020016060815260200160608152602001600081526020016000815260200160008152602001606081526020016060815260200160608152602001600015158152602001600081525090565b828054611af490612411565b90600052602060002090601f016020900481019282611b165760008555611b5d565b82601f10611b2f57805160ff1916838001178555611b5d565b82800160010185558215611b5d579182015b82811115611b5c578251825591602001919060010190611b41565b5b509050611b6a9190611b6e565b5090565b5b80821115611b87576000816000905550600101611b6f565b5090565b6000604051905090565b600080fd5b600080fd5b600080fd5b600080fd5b6000601f19601f8301169050919050565b7f4e487b7100000000000000000000000000000000000000000000000000000000600052604160045260246000fd5b611bf282611ba9565b810181811067ffffffffffffffff82111715611c1157611c10611bba565b5b80604052505050565b6000611c24611b8b565b9050611c308282611be9565b919050565b600067ffffffffffffffff821115611c5057611c4f611bba565b5b611c5982611ba9565b9050602081019050919050565b82818337600083830152505050565b6000611c88611c8384611c35565b611c1a565b905082815260208101848484011115611ca457611ca3611ba4565b5b611caf848285611c66565b509392505050565b600082601f830112611ccc57611ccb611b9f565b5b8135611cdc848260208601611c75565b91505092915050565b600060208284031215611cfb57611cfa611b95565b5b600082013567ffffffffffffffff811115611d1957611d18611b9a565b5b611d2584828501611cb7565b91505092915050565b600081519050919050565b600082825260208201905092915050565b60005b83811015611d68578082015181840152602081019050611d4d565b83811115611d77576000848401525b50505050565b6000611d8882611d2e565b611d928185611d39565b9350611da2818560208601611d4a565b611dab81611ba9565b840191505092915050565b6000819050919050565b611dc981611db6565b82525050565b60008115159050919050565b611de481611dcf565b82525050565b60006101a0830160008301518482036000860152611e088282611d7d565b91505060208301518482036020860152611e228282611d7d565b91505060408301518482036040860152611e3c8282611d7d565b91505060608301518482036060860152611e568282611d7d565b91505060808301518482036080860152611e708282611d7d565b91505060a0830151611e8560a0860182611dc0565b5060c0830151611e9860c0860182611dc0565b5060e0830151611eab60e0860182611dc0565b50610100830151848203610100860152611ec58282611d7d565b915050610120830151848203610120860152611ee18282611d7d565b915050610140830151848203610140860152611efd8282611d7d565b915050610160830151611f14610160860182611ddb565b50610180830151611f29610180860182611dc0565b508091505092915050565b60006020820190508181036000830152611f4e8184611dea565b905092915050565b600080600080600060a08688031215611f7257611f71611b95565b5b600086013567ffffffffffffffff811115611f9057611f8f611b9a565b5b611f9c88828901611cb7565b955050602086013567ffffffffffffffff811115611fbd57611fbc611b9a565b5b611fc988828901611cb7565b945050604086013567ffffffffffffffff811115611fea57611fe9611b9a565b5b611ff688828901611cb7565b935050606086013567ffffffffffffffff81111561201757612016611b9a565b5b61202388828901611cb7565b925050608086013567ffffffffffffffff81111561204457612043611b9a565b5b61205088828901611cb7565b9150509295509295909350565b6000806040838503121561207457612073611b95565b5b600083013567ffffffffffffffff81111561209257612091611b9a565b5b61209e85828601611cb7565b925050602083013567ffffffffffffffff8111156120bf576120be611b9a565b5b6120cb85828601611cb7565b9150509250929050565b6120de81611db6565b81146120e957600080fd5b50565b6000813590506120fb816120d5565b92915050565b60006020828403121561211757612116611b95565b5b6000612125848285016120ec565b91505092915050565b600082825260208201905092915050565b600061214a82611d2e565b612154818561212e565b9350612164818560208601611d4a565b61216d81611ba9565b840191505092915050565b60006020820190508181036000830152612192818461213f565b905092915050565b6121a381611db6565b82525050565b60006020820190506121be600083018461219a565b92915050565b60008060008060008060c087890312156121e1576121e0611b95565b5b600087013567ffffffffffffffff8111156121ff576121fe611b9a565b5b61220b89828a01611cb7565b965050602087013567ffffffffffffffff81111561222c5761222b611b9a565b5b61223889828a01611cb7565b955050604087013567ffffffffffffffff81111561225957612258611b9a565b5b61226589828a01611cb7565b945050606087013567ffffffffffffffff81111561228657612285611b9a565b5b61229289828a01611cb7565b935050608087013567ffffffffffffffff8111156122b3576122b2611b9a565b5b6122bf89828a01611cb7565b92505060a087013567ffffffffffffffff8111156122e0576122df611b9a565b5b6122ec89828a01611cb7565b9150509295509295509295565b61230281611dcf565b82525050565b600060208201905061231d60008301846122f9565b92915050565b600081905092915050565b600061233982611d2e565b6123438185612323565b9350612353818560208601611d4a565b80840191505092915050565b600061236b828461232e565b915081905092915050565b7f50726f66696c6520646f6573206e6f7420657869737421210000000000000000600082015250565b60006123ac60188361212e565b91506123b782612376565b602082019050919050565b600060208201905081810360008301526123db8161239f565b9050919050565b7f4e487b7100000000000000000000000000000000000000000000000000000000600052602260045260246000fd5b6000600282049050600182168061242957607f821691505b6020821081141561243d5761243c6123e2565b5b50919050565b7f4e487b7100000000000000000000000000000000000000000000000000000000600052601160045260246000fd5b600061247d82611db6565b915061248883611db6565b9250827fffffffffffffffffffffffffffffffffffffffffffffffffffffffffffffffff038211156124bd576124bc612443565b5b828201905092915050565b60006040820190506124dd600083018561219a565b81810360208301526124ef818461213f565b90509392505050565b60008190508160005260206000209050919050565b6000815461251a81612411565b612524818661212e565b9450600182166000811461253f576001811461255157612584565b60ff1983168652602086019350612584565b61255a856124f8565b60005b8381101561257c5781548189015260018201915060208101905061255d565b808801955050505b50505092915050565b600060408201905081810360008301526125a7818561250d565b905081810360208301526125bb818461213f565b90509392505050565b60006125d76125d284611c35565b611c1a565b9050828152602081018484840111156125f3576125f2611ba4565b5b6125fe848285611d4a565b509392505050565b600082601f83011261261b5761261a611b9f565b5b815161262b8482602086016125c4565b91505092915050565b60006020828403121561264a57612649611b95565b5b600082015167ffffffffffffffff81111561266857612667611b9a565b5b61267484828501612606565b91505092915050565b60006040820190508181036000830152612697818561250d565b90506126a6602083018461219a565b9392505050565b7f50726f66696c6520206578697374732121000000000000000000000000000000600082015250565b60006126e360118361212e565b91506126ee826126ad565b602082019050919050565b60006020820190508181036000830152612712816126d6565b9050919050565b600081519050612728816120d5565b92915050565b60006020828403121561274457612743611b95565b5b600061275284828501612719565b9150509291505056fea264697066735822122017abd0c6408ceedff6424cb798d02276e317ec0f00d7d5543fe1435f93907d3764736f6c63430008090033",
  "linkReferences": {},
  "deployedLinkReferences": {}
}