{
  "_format": "hh-sol-artifact-1",
  "contractName": "Elpis",
  "sourceName": "contracts/Elpis.sol",
  "abi": [
    {
      "anonymous": false,
      "inputs": [
        {
          "indexed": false,
          "internalType": "string",
          "name": "handle",
          "type": "string"
        },
        {
          "indexed": true,
          "internalType": "address",
          "name": "user",
          "type": "address"
        }
      ],
      "name": "ProfileCreated",
      "type": "event"
    },
    {
      "anonymous": false,
      "inputs": [
        {
          "indexed": false,
          "internalType": "string",
          "name": "follwerhandle",
          "type": "string"
        },
        {
          "indexed": false,
          "internalType": "string",
          "name": "followinghandle",
          "type": "string"
        }
      ],
      "name": "StartedFollowing",
      "type": "event"
    },
    {
      "inputs": [
        {
          "internalType": "string",
          "name": "_name",
          "type": "string"
        },
        {
          "internalType": "string",
          "name": "_handle",
          "type": "string"
        },
        {
          "internalType": "string",
          "name": "_bio",
          "type": "string"
        },
        {
          "internalType": "string",
          "name": "_profileImageUrl",
          "type": "string"
        },
        {
          "internalType": "string",
          "name": "_coverImageUrl",
          "type": "string"
        }
      ],
      "name": "createProfile",
      "outputs": [
        {
          "internalType": "string",
          "name": "userHandle",
          "type": "string"
        }
      ],
      "stateMutability": "nonpayable",
      "type": "function"
    },
    {
      "inputs": [
        {
          "internalType": "string",
          "name": "_handle",
          "type": "string"
        },
        {
          "internalType": "string",
          "name": "_followerMetaData",
          "type": "string"
        },
        {
          "internalType": "string",
          "name": "_followingMetaData",
          "type": "string"
        }
      ],
      "name": "followProfile",
      "outputs": [],
      "stateMutability": "nonpayable",
      "type": "function"
    },
    {
      "inputs": [],
      "name": "getProfile",
      "outputs": [
        {
          "components": [
            {
              "internalType": "string",
              "name": "name",
              "type": "string"
            },
            {
              "internalType": "string",
              "name": "handle",
              "type": "string"
            },
            {
              "internalType": "string",
              "name": "bio",
              "type": "string"
            },
            {
              "internalType": "string",
              "name": "profileImageUrl",
              "type": "string"
            },
            {
              "internalType": "string",
              "name": "coverImageUrl",
              "type": "string"
            },
            {
              "internalType": "uint256",
              "name": "followerCount",
              "type": "uint256"
            },
            {
              "internalType": "uint256",
              "name": "followingCount",
              "type": "uint256"
            },
            {
              "internalType": "uint256",
              "name": "postCount",
              "type": "uint256"
            },
            {
              "internalType": "string",
              "name": "followerMetaData",
              "type": "string"
            },
            {
              "internalType": "string",
              "name": "followingMetaData",
              "type": "string"
            },
            {
              "internalType": "string",
              "name": "postMetaData",
              "type": "string"
            },
            {
              "internalType": "bool",
              "name": "profileExist",
              "type": "bool"
            }
          ],
          "internalType": "struct Elpis.Profile",
          "name": "_user",
          "type": "tuple"
        }
      ],
      "stateMutability": "view",
      "type": "function"
    },
    {
      "inputs": [
        {
          "internalType": "string",
          "name": "_handle",
          "type": "string"
        }
      ],
      "name": "isHandleExist",
      "outputs": [
        {
          "internalType": "bool",
          "name": "_isHandleExist",
          "type": "bool"
        }
      ],
      "stateMutability": "view",
      "type": "function"
    },
    {
      "inputs": [
        {
          "internalType": "string",
          "name": "_handle",
          "type": "string"
        }
      ],
      "name": "searchProfile",
      "outputs": [
        {
          "components": [
            {
              "internalType": "string",
              "name": "name",
              "type": "string"
            },
            {
              "internalType": "string",
              "name": "handle",
              "type": "string"
            },
            {
              "internalType": "string",
              "name": "bio",
              "type": "string"
            },
            {
              "internalType": "string",
              "name": "profileImageUrl",
              "type": "string"
            },
            {
              "internalType": "string",
              "name": "coverImageUrl",
              "type": "string"
            },
            {
              "internalType": "uint256",
              "name": "followerCount",
              "type": "uint256"
            },
            {
              "internalType": "uint256",
              "name": "followingCount",
              "type": "uint256"
            },
            {
              "internalType": "uint256",
              "name": "postCount",
              "type": "uint256"
            },
            {
              "internalType": "string",
              "name": "followerMetaData",
              "type": "string"
            },
            {
              "internalType": "string",
              "name": "followingMetaData",
              "type": "string"
            },
            {
              "internalType": "string",
              "name": "postMetaData",
              "type": "string"
            },
            {
              "internalType": "bool",
              "name": "profileExist",
              "type": "bool"
            }
          ],
          "internalType": "struct Elpis.Profile",
          "name": "_user",
          "type": "tuple"
        }
      ],
      "stateMutability": "view",
      "type": "function"
    }
  ],
  "bytecode": "0x608060405234801561001057600080fd5b50611cf1806100206000396000f3fe608060405234801561001057600080fd5b50600436106100575760003560e01c806337b3cd8a1461005c578063458ac54a1461008c5780634694150a146100a8578063d6afc9b1146100d8578063decb5185146100f6575b600080fd5b6100766004803603810190610071919061153e565b610126565b60405161008391906116cd565b60405180910390f35b6100a660048036038101906100a191906116ef565b610444565b005b6100c260048036038101906100bd9190611796565b61069c565b6040516100cf9190611992565b60405180910390f35b6100e0610caa565b6040516100ed9190611992565b60405180910390f35b610110600480360381019061010b9190611796565b611258565b60405161011d91906119c3565b60405180910390f35b60606000803373ffffffffffffffffffffffffffffffffffffffff1673ffffffffffffffffffffffffffffffffffffffff168152602001908152602001600020600b0160009054906101000a900460ff16156101b7576040517f08c379a00000000000000000000000000000000000000000000000000000000081526004016101ae90611a2a565b60405180910390fd5b6101bf6112de565b868160000181905250858160200181905250848160400181905250838160600181905250828160800181905250600181610160019015159081151581525050806000803373ffffffffffffffffffffffffffffffffffffffff1673ffffffffffffffffffffffffffffffffffffffff1681526020019081526020016000206000820151816000019080519060200190610259929190611341565b506020820151816001019080519060200190610276929190611341565b506040820151816002019080519060200190610293929190611341565b5060608201518160030190805190602001906102b0929190611341565b5060808201518160040190805190602001906102cd929190611341565b5060a0820151816005015560c0820151816006015560e08201518160070155610100820151816008019080519060200190610309929190611341565b50610120820151816009019080519060200190610327929190611341565b5061014082015181600a019080519060200190610345929190611341565b5061016082015181600b0160006101000a81548160ff0219169083151502179055509050503360018760405161037b9190611a86565b908152602001604051809103902060006101000a81548173ffffffffffffffffffffffffffffffffffffffff021916908373ffffffffffffffffffffffffffffffffffffffff1602179055506001600260008282546103da9190611acc565b925050819055503373ffffffffffffffffffffffffffffffffffffffff167f48cd04660754343a75aabc83899998826b6c3fc1c623d3cfb42bcd3e465cfa3c826020015160405161042b91906116cd565b60405180910390a2806020015191505095945050505050565b816000806001866040516104589190611a86565b908152602001604051809103902060009054906101000a900473ffffffffffffffffffffffffffffffffffffffff1673ffffffffffffffffffffffffffffffffffffffff1673ffffffffffffffffffffffffffffffffffffffff16815260200190815260200160002060080190805190602001906104d7929190611341565b5060016000806001866040516104ed9190611a86565b908152602001604051809103902060009054906101000a900473ffffffffffffffffffffffffffffffffffffffff1673ffffffffffffffffffffffffffffffffffffffff1673ffffffffffffffffffffffffffffffffffffffff16815260200190815260200160002060050160008282546105689190611acc565b92505081905550806000803373ffffffffffffffffffffffffffffffffffffffff1673ffffffffffffffffffffffffffffffffffffffff16815260200190815260200160002060090190805190602001906105c4929190611341565b5060016000803373ffffffffffffffffffffffffffffffffffffffff1673ffffffffffffffffffffffffffffffffffffffff16815260200190815260200160002060060160008282546106179190611acc565b925050819055507f8cdd3ba8c3b34319b5b41d79769ffd341e01d7849b27de2c28a2643663080aef6000803373ffffffffffffffffffffffffffffffffffffffff1673ffffffffffffffffffffffffffffffffffffffff1681526020019081526020016000206001018460405161068f929190611c18565b60405180910390a1505050565b6106a46112de565b600073ffffffffffffffffffffffffffffffffffffffff166001836040516106cc9190611a86565b908152602001604051809103902060009054906101000a900473ffffffffffffffffffffffffffffffffffffffff1673ffffffffffffffffffffffffffffffffffffffff161415610752576040517f08c379a000000000000000000000000000000000000000000000000000000000815260040161074990611c9b565b60405180910390fd5b6000806001846040516107659190611a86565b908152602001604051809103902060009054906101000a900473ffffffffffffffffffffffffffffffffffffffff1673ffffffffffffffffffffffffffffffffffffffff1673ffffffffffffffffffffffffffffffffffffffff168152602001908152602001600020604051806101800160405290816000820180546107ea90611b51565b80601f016020809104026020016040519081016040528092919081815260200182805461081690611b51565b80156108635780601f1061083857610100808354040283529160200191610863565b820191906000526020600020905b81548152906001019060200180831161084657829003601f168201915b5050505050815260200160018201805461087c90611b51565b80601f01602080910402602001604051908101604052809291908181526020018280546108a890611b51565b80156108f55780601f106108ca576101008083540402835291602001916108f5565b820191906000526020600020905b8154815290600101906020018083116108d857829003601f168201915b5050505050815260200160028201805461090e90611b51565b80601f016020809104026020016040519081016040528092919081815260200182805461093a90611b51565b80156109875780601f1061095c57610100808354040283529160200191610987565b820191906000526020600020905b81548152906001019060200180831161096a57829003601f168201915b505050505081526020016003820180546109a090611b51565b80601f01602080910402602001604051908101604052809291908181526020018280546109cc90611b51565b8015610a195780601f106109ee57610100808354040283529160200191610a19565b820191906000526020600020905b8154815290600101906020018083116109fc57829003601f168201915b50505050508152602001600482018054610a3290611b51565b80601f0160208091040260200160405190810160405280929190818152602001828054610a5e90611b51565b8015610aab5780601f10610a8057610100808354040283529160200191610aab565b820191906000526020600020905b815481529060010190602001808311610a8e57829003601f168201915b50505050508152602001600582015481526020016006820154815260200160078201548152602001600882018054610ae290611b51565b80601f0160208091040260200160405190810160405280929190818152602001828054610b0e90611b51565b8015610b5b5780601f10610b3057610100808354040283529160200191610b5b565b820191906000526020600020905b815481529060010190602001808311610b3e57829003601f168201915b50505050508152602001600982018054610b7490611b51565b80601f0160208091040260200160405190810160405280929190818152602001828054610ba090611b51565b8015610bed5780601f10610bc257610100808354040283529160200191610bed565b820191906000526020600020905b815481529060010190602001808311610bd057829003601f168201915b50505050508152602001600a82018054610c0690611b51565b80601f0160208091040260200160405190810160405280929190818152602001828054610c3290611b51565b8015610c7f5780601f10610c5457610100808354040283529160200191610c7f565b820191906000526020600020905b815481529060010190602001808311610c6257829003601f168201915b50505050508152602001600b820160009054906101000a900460ff1615151515815250509050919050565b610cb26112de565b6000803373ffffffffffffffffffffffffffffffffffffffff1673ffffffffffffffffffffffffffffffffffffffff168152602001908152602001600020600b0160009054906101000a900460ff16610d40576040517f08c379a0000000000000000000000000000000000000000000000000000000008152600401610d3790611c9b565b60405180910390fd5b6000803373ffffffffffffffffffffffffffffffffffffffff1673ffffffffffffffffffffffffffffffffffffffff16815260200190815260200160002060405180610180016040529081600082018054610d9a90611b51565b80601f0160208091040260200160405190810160405280929190818152602001828054610dc690611b51565b8015610e135780601f10610de857610100808354040283529160200191610e13565b820191906000526020600020905b815481529060010190602001808311610df657829003601f168201915b50505050508152602001600182018054610e2c90611b51565b80601f0160208091040260200160405190810160405280929190818152602001828054610e5890611b51565b8015610ea55780601f10610e7a57610100808354040283529160200191610ea5565b820191906000526020600020905b815481529060010190602001808311610e8857829003601f168201915b50505050508152602001600282018054610ebe90611b51565b80601f0160208091040260200160405190810160405280929190818152602001828054610eea90611b51565b8015610f375780601f10610f0c57610100808354040283529160200191610f37565b820191906000526020600020905b815481529060010190602001808311610f1a57829003601f168201915b50505050508152602001600382018054610f5090611b51565b80601f0160208091040260200160405190810160405280929190818152602001828054610f7c90611b51565b8015610fc95780601f10610f9e57610100808354040283529160200191610fc9565b820191906000526020600020905b815481529060010190602001808311610fac57829003601f168201915b50505050508152602001600482018054610fe290611b51565b80601f016020809104026020016040519081016040528092919081815260200182805461100e90611b51565b801561105b5780601f106110305761010080835404028352916020019161105b565b820191906000526020600020905b81548152906001019060200180831161103e57829003601f168201915b5050505050815260200160058201548152602001600682015481526020016007820154815260200160088201805461109290611b51565b80601f01602080910402602001604051908101604052809291908181526020018280546110be90611b51565b801561110b5780601f106110e05761010080835404028352916020019161110b565b820191906000526020600020905b8154815290600101906020018083116110ee57829003601f168201915b5050505050815260200160098201805461112490611b51565b80601f016020809104026020016040519081016040528092919081815260200182805461115090611b51565b801561119d5780601f106111725761010080835404028352916020019161119d565b820191906000526020600020905b81548152906001019060200180831161118057829003601f168201915b50505050508152602001600a820180546111b690611b51565b80601f01602080910402602001604051908101604052809291908181526020018280546111e290611b51565b801561122f5780601f106112045761010080835404028352916020019161122f565b820191906000526020600020905b81548152906001019060200180831161121257829003601f168201915b50505050508152602001600b820160009054906101000a900460ff161515151581525050905090565b60008073ffffffffffffffffffffffffffffffffffffffff166001836040516112819190611a86565b908152602001604051809103902060009054906101000a900473ffffffffffffffffffffffffffffffffffffffff1673ffffffffffffffffffffffffffffffffffffffff16146112d457600190506112d9565b600090505b919050565b60405180610180016040528060608152602001606081526020016060815260200160608152602001606081526020016000815260200160008152602001600081526020016060815260200160608152602001606081526020016000151581525090565b82805461134d90611b51565b90600052602060002090601f01602090048101928261136f57600085556113b6565b82601f1061138857805160ff19168380011785556113b6565b828001600101855582156113b6579182015b828111156113b557825182559160200191906001019061139a565b5b5090506113c391906113c7565b5090565b5b808211156113e05760008160009055506001016113c8565b5090565b6000604051905090565b600080fd5b600080fd5b600080fd5b600080fd5b6000601f19601f8301169050919050565b7f4e487b7100000000000000000000000000000000000000000000000000000000600052604160045260246000fd5b61144b82611402565b810181811067ffffffffffffffff8211171561146a57611469611413565b5b80604052505050565b600061147d6113e4565b90506114898282611442565b919050565b600067ffffffffffffffff8211156114a9576114a8611413565b5b6114b282611402565b9050602081019050919050565b82818337600083830152505050565b60006114e16114dc8461148e565b611473565b9050828152602081018484840111156114fd576114fc6113fd565b5b6115088482856114bf565b509392505050565b600082601f830112611525576115246113f8565b5b81356115358482602086016114ce565b91505092915050565b600080600080600060a0868803121561155a576115596113ee565b5b600086013567ffffffffffffffff811115611578576115776113f3565b5b61158488828901611510565b955050602086013567ffffffffffffffff8111156115a5576115a46113f3565b5b6115b188828901611510565b945050604086013567ffffffffffffffff8111156115d2576115d16113f3565b5b6115de88828901611510565b935050606086013567ffffffffffffffff8111156115ff576115fe6113f3565b5b61160b88828901611510565b925050608086013567ffffffffffffffff81111561162c5761162b6113f3565b5b61163888828901611510565b9150509295509295909350565b600081519050919050565b600082825260208201905092915050565b60005b8381101561167f578082015181840152602081019050611664565b8381111561168e576000848401525b50505050565b600061169f82611645565b6116a98185611650565b93506116b9818560208601611661565b6116c281611402565b840191505092915050565b600060208201905081810360008301526116e78184611694565b905092915050565b600080600060608486031215611708576117076113ee565b5b600084013567ffffffffffffffff811115611726576117256113f3565b5b61173286828701611510565b935050602084013567ffffffffffffffff811115611753576117526113f3565b5b61175f86828701611510565b925050604084013567ffffffffffffffff8111156117805761177f6113f3565b5b61178c86828701611510565b9150509250925092565b6000602082840312156117ac576117ab6113ee565b5b600082013567ffffffffffffffff8111156117ca576117c96113f3565b5b6117d684828501611510565b91505092915050565b600082825260208201905092915050565b60006117fb82611645565b61180581856117df565b9350611815818560208601611661565b61181e81611402565b840191505092915050565b6000819050919050565b61183c81611829565b82525050565b60008115159050919050565b61185781611842565b82525050565b600061018083016000830151848203600086015261187b82826117f0565b9150506020830151848203602086015261189582826117f0565b915050604083015184820360408601526118af82826117f0565b915050606083015184820360608601526118c982826117f0565b915050608083015184820360808601526118e382826117f0565b91505060a08301516118f860a0860182611833565b5060c083015161190b60c0860182611833565b5060e083015161191e60e0860182611833565b5061010083015184820361010086015261193882826117f0565b91505061012083015184820361012086015261195482826117f0565b91505061014083015184820361014086015261197082826117f0565b91505061016083015161198761016086018261184e565b508091505092915050565b600060208201905081810360008301526119ac818461185d565b905092915050565b6119bd81611842565b82525050565b60006020820190506119d860008301846119b4565b92915050565b7f50726f66696c6520206578697374732121000000000000000000000000000000600082015250565b6000611a14601183611650565b9150611a1f826119de565b602082019050919050565b60006020820190508181036000830152611a4381611a07565b9050919050565b600081905092915050565b6000611a6082611645565b611a6a8185611a4a565b9350611a7a818560208601611661565b80840191505092915050565b6000611a928284611a55565b915081905092915050565b7f4e487b7100000000000000000000000000000000000000000000000000000000600052601160045260246000fd5b6000611ad782611829565b9150611ae283611829565b9250827fffffffffffffffffffffffffffffffffffffffffffffffffffffffffffffffff03821115611b1757611b16611a9d565b5b828201905092915050565b7f4e487b7100000000000000000000000000000000000000000000000000000000600052602260045260246000fd5b60006002820490506001821680611b6957607f821691505b60208210811415611b7d57611b7c611b22565b5b50919050565b60008190508160005260206000209050919050565b60008154611ba581611b51565b611baf8186611650565b94506001821660008114611bca5760018114611bdc57611c0f565b60ff1983168652602086019350611c0f565b611be585611b83565b60005b83811015611c0757815481890152600182019150602081019050611be8565b808801955050505b50505092915050565b60006040820190508181036000830152611c328185611b98565b90508181036020830152611c468184611694565b90509392505050565b7f50726f66696c6520646f6573206e6f7420657869737421210000000000000000600082015250565b6000611c85601883611650565b9150611c9082611c4f565b602082019050919050565b60006020820190508181036000830152611cb481611c78565b905091905056fea26469706673582212202c38166b815a313741023cd166da8c8eff64f2be64c798295037d93f5db0081e64736f6c63430008090033",
  "linkReferences": {},
  "deployedLinkReferences": {}
}