{
  "_format": "hh-sol-artifact-1",
  "contractName": "Elpis",
  "sourceName": "contracts/Elpis.sol",
  "abi": [
    {
      "inputs": [
        {
          "internalType": "address",
          "name": "_nftAddress",
          "type": "address"
        }
      ],
      "stateMutability": "nonpayable",
      "type": "constructor"
    },
    {
      "anonymous": false,
      "inputs": [
        {
          "indexed": false,
          "internalType": "string",
          "name": "handle",
          "type": "string"
        },
        {
          "indexed": false,
          "internalType": "uint256",
          "name": "postCount",
          "type": "uint256"
        }
      ],
      "name": "PostCreated",
      "type": "event"
    },
    {
      "anonymous": false,
      "inputs": [
        {
          "indexed": false,
          "internalType": "string",
          "name": "posthandle",
          "type": "string"
        }
      ],
      "name": "PostInteraction",
      "type": "event"
    },
    {
      "anonymous": false,
      "inputs": [
        {
          "indexed": false,
          "internalType": "string",
          "name": "handle",
          "type": "string"
        },
        {
          "indexed": true,
          "internalType": "address",
          "name": "user",
          "type": "address"
        }
      ],
      "name": "ProfileCreated",
      "type": "event"
    },
    {
      "anonymous": false,
      "inputs": [
        {
          "indexed": false,
          "internalType": "string",
          "name": "follwerhandle",
          "type": "string"
        },
        {
          "indexed": false,
          "internalType": "string",
          "name": "followinghandle",
          "type": "string"
        }
      ],
      "name": "StartedFollowing",
      "type": "event"
    },
    {
      "inputs": [
        {
          "internalType": "string",
          "name": "_postProfileHandle",
          "type": "string"
        },
        {
          "internalType": "string",
          "name": "_postMetadata",
          "type": "string"
        }
      ],
      "name": "addCommentAndLikes",
      "outputs": [],
      "stateMutability": "nonpayable",
      "type": "function"
    },
    {
      "inputs": [
        {
          "internalType": "string",
          "name": "_postMetaData",
          "type": "string"
        }
      ],
      "name": "addPost",
      "outputs": [],
      "stateMutability": "nonpayable",
      "type": "function"
    },
    {
      "inputs": [
        {
          "internalType": "string",
          "name": "_name",
          "type": "string"
        },
        {
          "internalType": "string",
          "name": "_handle",
          "type": "string"
        },
        {
          "internalType": "string",
          "name": "_bio",
          "type": "string"
        },
        {
          "internalType": "string",
          "name": "_profileImageUrl",
          "type": "string"
        },
        {
          "internalType": "string",
          "name": "_coverImageUrl",
          "type": "string"
        },
        {
          "internalType": "string",
          "name": "_tokenURI",
          "type": "string"
        }
      ],
      "name": "createProfile",
      "outputs": [
        {
          "internalType": "string",
          "name": "userHandle",
          "type": "string"
        }
      ],
      "stateMutability": "nonpayable",
      "type": "function"
    },
    {
      "inputs": [
        {
          "internalType": "string",
          "name": "_handle",
          "type": "string"
        },
        {
          "internalType": "string",
          "name": "_followerMetaData",
          "type": "string"
        },
        {
          "internalType": "string",
          "name": "_followingMetaData",
          "type": "string"
        }
      ],
      "name": "followProfile",
      "outputs": [],
      "stateMutability": "nonpayable",
      "type": "function"
    },
    {
      "inputs": [],
      "name": "getProfile",
      "outputs": [
        {
          "components": [
            {
              "internalType": "string",
              "name": "name",
              "type": "string"
            },
            {
              "internalType": "string",
              "name": "handle",
              "type": "string"
            },
            {
              "internalType": "string",
              "name": "bio",
              "type": "string"
            },
            {
              "internalType": "string",
              "name": "profileImageUrl",
              "type": "string"
            },
            {
              "internalType": "string",
              "name": "coverImageUrl",
              "type": "string"
            },
            {
              "internalType": "uint256",
              "name": "followerCount",
              "type": "uint256"
            },
            {
              "internalType": "uint256",
              "name": "followingCount",
              "type": "uint256"
            },
            {
              "internalType": "uint256",
              "name": "postCount",
              "type": "uint256"
            },
            {
              "internalType": "string",
              "name": "followerMetaData",
              "type": "string"
            },
            {
              "internalType": "string",
              "name": "followingMetaData",
              "type": "string"
            },
            {
              "internalType": "string",
              "name": "postMetaData",
              "type": "string"
            },
            {
              "internalType": "bool",
              "name": "profileExist",
              "type": "bool"
            },
            {
              "internalType": "uint256",
              "name": "tokenId",
              "type": "uint256"
            }
          ],
          "internalType": "struct Elpis.Profile",
          "name": "_user",
          "type": "tuple"
        }
      ],
      "stateMutability": "view",
      "type": "function"
    },
    {
      "inputs": [
        {
          "internalType": "uint256",
          "name": "tokenId",
          "type": "uint256"
        }
      ],
      "name": "getTokenUri",
      "outputs": [
        {
          "internalType": "string",
          "name": "",
          "type": "string"
        }
      ],
      "stateMutability": "nonpayable",
      "type": "function"
    },
    {
      "inputs": [],
      "name": "getTotalUser",
      "outputs": [
        {
          "internalType": "uint256",
          "name": "",
          "type": "uint256"
        }
      ],
      "stateMutability": "view",
      "type": "function"
    },
    {
      "inputs": [
        {
          "internalType": "string",
          "name": "_handle",
          "type": "string"
        }
      ],
      "name": "isHandleExist",
      "outputs": [
        {
          "internalType": "bool",
          "name": "_isHandleExist",
          "type": "bool"
        }
      ],
      "stateMutability": "view",
      "type": "function"
    },
    {
      "inputs": [
        {
          "internalType": "string",
          "name": "_handle",
          "type": "string"
        }
      ],
      "name": "searchProfile",
      "outputs": [
        {
          "components": [
            {
              "internalType": "string",
              "name": "name",
              "type": "string"
            },
            {
              "internalType": "string",
              "name": "handle",
              "type": "string"
            },
            {
              "internalType": "string",
              "name": "bio",
              "type": "string"
            },
            {
              "internalType": "string",
              "name": "profileImageUrl",
              "type": "string"
            },
            {
              "internalType": "string",
              "name": "coverImageUrl",
              "type": "string"
            },
            {
              "internalType": "uint256",
              "name": "followerCount",
              "type": "uint256"
            },
            {
              "internalType": "uint256",
              "name": "followingCount",
              "type": "uint256"
            },
            {
              "internalType": "uint256",
              "name": "postCount",
              "type": "uint256"
            },
            {
              "internalType": "string",
              "name": "followerMetaData",
              "type": "string"
            },
            {
              "internalType": "string",
              "name": "followingMetaData",
              "type": "string"
            },
            {
              "internalType": "string",
              "name": "postMetaData",
              "type": "string"
            },
            {
              "internalType": "bool",
              "name": "profileExist",
              "type": "bool"
            },
            {
              "internalType": "uint256",
              "name": "tokenId",
              "type": "uint256"
            }
          ],
          "internalType": "struct Elpis.Profile",
          "name": "_user",
          "type": "tuple"
        }
      ],
      "stateMutability": "view",
      "type": "function"
    }
  ],
  "bytecode": "0x60806040523480156200001157600080fd5b50604051620025a8380380620025a88339818101604052810190620000379190620000e9565b80600560006101000a81548173ffffffffffffffffffffffffffffffffffffffff021916908373ffffffffffffffffffffffffffffffffffffffff160217905550506200011b565b600080fd5b600073ffffffffffffffffffffffffffffffffffffffff82169050919050565b6000620000b18262000084565b9050919050565b620000c381620000a4565b8114620000cf57600080fd5b50565b600081519050620000e381620000b8565b92915050565b6000602082840312156200010257620001016200007f565b5b60006200011284828501620000d2565b91505092915050565b61247d806200012b6000396000f3fe608060405234801561001057600080fd5b50600436106100935760003560e01c8063a632281911610066578063a632281914610130578063a9c63aa01461014c578063c6365c4c1461016a578063d6afc9b11461019a578063decb5185146101b857610093565b8063458ac54a146100985780634694150a146100b457806375b97ed1146100e45780638ad9134514610100575b600080fd5b6100b260048036038101906100ad9190611a31565b6101e8565b005b6100ce60048036038101906100c99190611ad8565b610443565b6040516100db9190611d27565b60405180910390f35b6100fe60048036038101906100f99190611d49565b610a5c565b005b61011a60048036038101906101159190611ded565b610b32565b6040516101279190611e64565b60405180910390f35b61014a60048036038101906101459190611ad8565b610bed565b005b610154610d5c565b6040516101619190611e95565b60405180910390f35b610184600480360381019061017f9190611eb0565b610d66565b6040516101919190611e64565b60405180910390f35b6101a2611166565b6040516101af9190611d27565b60405180910390f35b6101d260048036038101906101cd9190611ad8565b611720565b6040516101df9190611ff4565b60405180910390f35b81600160006002866040516101fd919061204b565b908152602001604051809103902060009054906101000a900473ffffffffffffffffffffffffffffffffffffffff1673ffffffffffffffffffffffffffffffffffffffff1673ffffffffffffffffffffffffffffffffffffffff168152602001908152602001600020600801908051906020019061027c9291906117ca565b506001806000600286604051610292919061204b565b908152602001604051809103902060009054906101000a900473ffffffffffffffffffffffffffffffffffffffff1673ffffffffffffffffffffffffffffffffffffffff1673ffffffffffffffffffffffffffffffffffffffff168152602001908152602001600020600501600082825461030d9190612091565b9250508190555080600160003373ffffffffffffffffffffffffffffffffffffffff1673ffffffffffffffffffffffffffffffffffffffff168152602001908152602001600020600901908051906020019061036a9291906117ca565b5060018060003373ffffffffffffffffffffffffffffffffffffffff1673ffffffffffffffffffffffffffffffffffffffff16815260200190815260200160002060060160008282546103bd9190612091565b925050819055507f8cdd3ba8c3b34319b5b41d79769ffd341e01d7849b27de2c28a2643663080aef600160003373ffffffffffffffffffffffffffffffffffffffff1673ffffffffffffffffffffffffffffffffffffffff168152602001908152602001600020600101846040516104369291906121dd565b60405180910390a1505050565b61044b611850565b600073ffffffffffffffffffffffffffffffffffffffff16600283604051610473919061204b565b908152602001604051809103902060009054906101000a900473ffffffffffffffffffffffffffffffffffffffff1673ffffffffffffffffffffffffffffffffffffffff1614156104f9576040517f08c379a00000000000000000000000000000000000000000000000000000000081526004016104f090612260565b60405180910390fd5b6001600060028460405161050d919061204b565b908152602001604051809103902060009054906101000a900473ffffffffffffffffffffffffffffffffffffffff1673ffffffffffffffffffffffffffffffffffffffff1673ffffffffffffffffffffffffffffffffffffffff168152602001908152602001600020604051806101a001604052908160008201805461059290612116565b80601f01602080910402602001604051908101604052809291908181526020018280546105be90612116565b801561060b5780601f106105e05761010080835404028352916020019161060b565b820191906000526020600020905b8154815290600101906020018083116105ee57829003601f168201915b5050505050815260200160018201805461062490612116565b80601f016020809104026020016040519081016040528092919081815260200182805461065090612116565b801561069d5780601f106106725761010080835404028352916020019161069d565b820191906000526020600020905b81548152906001019060200180831161068057829003601f168201915b505050505081526020016002820180546106b690612116565b80601f01602080910402602001604051908101604052809291908181526020018280546106e290612116565b801561072f5780601f106107045761010080835404028352916020019161072f565b820191906000526020600020905b81548152906001019060200180831161071257829003601f168201915b5050505050815260200160038201805461074890612116565b80601f016020809104026020016040519081016040528092919081815260200182805461077490612116565b80156107c15780601f10610796576101008083540402835291602001916107c1565b820191906000526020600020905b8154815290600101906020018083116107a457829003601f168201915b505050505081526020016004820180546107da90612116565b80601f016020809104026020016040519081016040528092919081815260200182805461080690612116565b80156108535780601f1061082857610100808354040283529160200191610853565b820191906000526020600020905b81548152906001019060200180831161083657829003601f168201915b5050505050815260200160058201548152602001600682015481526020016007820154815260200160088201805461088a90612116565b80601f01602080910402602001604051908101604052809291908181526020018280546108b690612116565b80156109035780601f106108d857610100808354040283529160200191610903565b820191906000526020600020905b8154815290600101906020018083116108e657829003601f168201915b5050505050815260200160098201805461091c90612116565b80601f016020809104026020016040519081016040528092919081815260200182805461094890612116565b80156109955780601f1061096a57610100808354040283529160200191610995565b820191906000526020600020905b81548152906001019060200180831161097857829003601f168201915b50505050508152602001600a820180546109ae90612116565b80601f01602080910402602001604051908101604052809291908181526020018280546109da90612116565b8015610a275780601f106109fc57610100808354040283529160200191610a27565b820191906000526020600020905b815481529060010190602001808311610a0a57829003601f168201915b50505050508152602001600b820160009054906101000a900460ff16151515158152602001600c820154815250509050919050565b6000600283604051610a6e919061204b565b908152602001604051809103902060009054906101000a900473ffffffffffffffffffffffffffffffffffffffff16905081600160008373ffffffffffffffffffffffffffffffffffffffff1673ffffffffffffffffffffffffffffffffffffffff168152602001908152602001600020600a019080519060200190610af59291906117ca565b507f6819b30a8035cdaf9ee21f913a815e598603d80418073b6462ff68495b5bafc583604051610b259190611e64565b60405180910390a1505050565b6060600560009054906101000a900473ffffffffffffffffffffffffffffffffffffffff1673ffffffffffffffffffffffffffffffffffffffff16638ad91345836040518263ffffffff1660e01b8152600401610b8f9190611e95565b600060405180830381600087803b158015610ba957600080fd5b505af1158015610bbd573d6000803e3d6000fd5b505050506040513d6000823e3d601f19601f82011682018060405250810190610be691906122f0565b9050919050565b80600160003373ffffffffffffffffffffffffffffffffffffffff1673ffffffffffffffffffffffffffffffffffffffff168152602001908152602001600020600a019080519060200190610c439291906117ca565b5060018060003373ffffffffffffffffffffffffffffffffffffffff1673ffffffffffffffffffffffffffffffffffffffff1681526020019081526020016000206007016000828254610c969190612091565b925050819055507f8bed420d642f3f71000caf554c0351ced19dc5b0dd8632f5f586e077995ded67600160003373ffffffffffffffffffffffffffffffffffffffff1673ffffffffffffffffffffffffffffffffffffffff168152602001908152602001600020600101600160003373ffffffffffffffffffffffffffffffffffffffff1673ffffffffffffffffffffffffffffffffffffffff16815260200190815260200160002060070154604051610d51929190612339565b60405180910390a150565b6000600454905090565b6060600160003373ffffffffffffffffffffffffffffffffffffffff1673ffffffffffffffffffffffffffffffffffffffff168152602001908152602001600020600b0160009054906101000a900460ff1615610df8576040517f08c379a0000000000000000000000000000000000000000000000000000000008152600401610def906123b5565b60405180910390fd5b610e0260006117a6565b6000610e0e60006117bc565b9050610e18611850565b888160000181905250878160200181905250868160400181905250858160600181905250848160800181905250600181610160019015159081151581525050818161018001818152505080600160003373ffffffffffffffffffffffffffffffffffffffff1673ffffffffffffffffffffffffffffffffffffffff1681526020019081526020016000206000820151816000019080519060200190610ebe9291906117ca565b506020820151816001019080519060200190610edb9291906117ca565b506040820151816002019080519060200190610ef89291906117ca565b506060820151816003019080519060200190610f159291906117ca565b506080820151816004019080519060200190610f329291906117ca565b5060a0820151816005015560c0820151816006015560e08201518160070155610100820151816008019080519060200190610f6e9291906117ca565b50610120820151816009019080519060200190610f8c9291906117ca565b5061014082015181600a019080519060200190610faa9291906117ca565b5061016082015181600b0160006101000a81548160ff02191690831515021790555061018082015181600c015590505033600289604051610feb919061204b565b908152602001604051809103902060006101000a81548173ffffffffffffffffffffffffffffffffffffffff021916908373ffffffffffffffffffffffffffffffffffffffff16021790555060016004600082825461104a9190612091565b92505081905550600560009054906101000a900473ffffffffffffffffffffffffffffffffffffffff1673ffffffffffffffffffffffffffffffffffffffff166377097fc883866040518363ffffffff1660e01b81526004016110ae9291906123d5565b602060405180830381600087803b1580156110c857600080fd5b505af11580156110dc573d6000803e3d6000fd5b505050506040513d601f19601f82011682018060405250810190611100919061241a565b503373ffffffffffffffffffffffffffffffffffffffff167f48cd04660754343a75aabc83899998826b6c3fc1c623d3cfb42bcd3e465cfa3c826020015160405161114b9190611e64565b60405180910390a28060200151925050509695505050505050565b61116e611850565b600160003373ffffffffffffffffffffffffffffffffffffffff1673ffffffffffffffffffffffffffffffffffffffff168152602001908152602001600020600b0160009054906101000a900460ff166111fd576040517f08c379a00000000000000000000000000000000000000000000000000000000081526004016111f490612260565b60405180910390fd5b600160003373ffffffffffffffffffffffffffffffffffffffff1673ffffffffffffffffffffffffffffffffffffffff168152602001908152602001600020604051806101a001604052908160008201805461125890612116565b80601f016020809104026020016040519081016040528092919081815260200182805461128490612116565b80156112d15780601f106112a6576101008083540402835291602001916112d1565b820191906000526020600020905b8154815290600101906020018083116112b457829003601f168201915b505050505081526020016001820180546112ea90612116565b80601f016020809104026020016040519081016040528092919081815260200182805461131690612116565b80156113635780601f1061133857610100808354040283529160200191611363565b820191906000526020600020905b81548152906001019060200180831161134657829003601f168201915b5050505050815260200160028201805461137c90612116565b80601f01602080910402602001604051908101604052809291908181526020018280546113a890612116565b80156113f55780601f106113ca576101008083540402835291602001916113f5565b820191906000526020600020905b8154815290600101906020018083116113d857829003601f168201915b5050505050815260200160038201805461140e90612116565b80601f016020809104026020016040519081016040528092919081815260200182805461143a90612116565b80156114875780601f1061145c57610100808354040283529160200191611487565b820191906000526020600020905b81548152906001019060200180831161146a57829003601f168201915b505050505081526020016004820180546114a090612116565b80601f01602080910402602001604051908101604052809291908181526020018280546114cc90612116565b80156115195780601f106114ee57610100808354040283529160200191611519565b820191906000526020600020905b8154815290600101906020018083116114fc57829003601f168201915b5050505050815260200160058201548152602001600682015481526020016007820154815260200160088201805461155090612116565b80601f016020809104026020016040519081016040528092919081815260200182805461157c90612116565b80156115c95780601f1061159e576101008083540402835291602001916115c9565b820191906000526020600020905b8154815290600101906020018083116115ac57829003601f168201915b505050505081526020016009820180546115e290612116565b80601f016020809104026020016040519081016040528092919081815260200182805461160e90612116565b801561165b5780601f106116305761010080835404028352916020019161165b565b820191906000526020600020905b81548152906001019060200180831161163e57829003601f168201915b50505050508152602001600a8201805461167490612116565b80601f01602080910402602001604051908101604052809291908181526020018280546116a090612116565b80156116ed5780601f106116c2576101008083540402835291602001916116ed565b820191906000526020600020905b8154815290600101906020018083116116d057829003601f168201915b50505050508152602001600b820160009054906101000a900460ff16151515158152602001600c82015481525050905090565b60008073ffffffffffffffffffffffffffffffffffffffff16600283604051611749919061204b565b908152602001604051809103902060009054906101000a900473ffffffffffffffffffffffffffffffffffffffff1673ffffffffffffffffffffffffffffffffffffffff161461179c57600190506117a1565b600090505b919050565b6001816000016000828254019250508190555050565b600081600001549050919050565b8280546117d690612116565b90600052602060002090601f0160209004810192826117f8576000855561183f565b82601f1061181157805160ff191683800117855561183f565b8280016001018555821561183f579182015b8281111561183e578251825591602001919060010190611823565b5b50905061184c91906118ba565b5090565b604051806101a001604052806060815260200160608152602001606081526020016060815260200160608152602001600081526020016000815260200160008152602001606081526020016060815260200160608152602001600015158152602001600081525090565b5b808211156118d35760008160009055506001016118bb565b5090565b6000604051905090565b600080fd5b600080fd5b600080fd5b600080fd5b6000601f19601f8301169050919050565b7f4e487b7100000000000000000000000000000000000000000000000000000000600052604160045260246000fd5b61193e826118f5565b810181811067ffffffffffffffff8211171561195d5761195c611906565b5b80604052505050565b60006119706118d7565b905061197c8282611935565b919050565b600067ffffffffffffffff82111561199c5761199b611906565b5b6119a5826118f5565b9050602081019050919050565b82818337600083830152505050565b60006119d46119cf84611981565b611966565b9050828152602081018484840111156119f0576119ef6118f0565b5b6119fb8482856119b2565b509392505050565b600082601f830112611a1857611a176118eb565b5b8135611a288482602086016119c1565b91505092915050565b600080600060608486031215611a4a57611a496118e1565b5b600084013567ffffffffffffffff811115611a6857611a676118e6565b5b611a7486828701611a03565b935050602084013567ffffffffffffffff811115611a9557611a946118e6565b5b611aa186828701611a03565b925050604084013567ffffffffffffffff811115611ac257611ac16118e6565b5b611ace86828701611a03565b9150509250925092565b600060208284031215611aee57611aed6118e1565b5b600082013567ffffffffffffffff811115611b0c57611b0b6118e6565b5b611b1884828501611a03565b91505092915050565b600081519050919050565b600082825260208201905092915050565b60005b83811015611b5b578082015181840152602081019050611b40565b83811115611b6a576000848401525b50505050565b6000611b7b82611b21565b611b858185611b2c565b9350611b95818560208601611b3d565b611b9e816118f5565b840191505092915050565b6000819050919050565b611bbc81611ba9565b82525050565b60008115159050919050565b611bd781611bc2565b82525050565b60006101a0830160008301518482036000860152611bfb8282611b70565b91505060208301518482036020860152611c158282611b70565b91505060408301518482036040860152611c2f8282611b70565b91505060608301518482036060860152611c498282611b70565b91505060808301518482036080860152611c638282611b70565b91505060a0830151611c7860a0860182611bb3565b5060c0830151611c8b60c0860182611bb3565b5060e0830151611c9e60e0860182611bb3565b50610100830151848203610100860152611cb88282611b70565b915050610120830151848203610120860152611cd48282611b70565b915050610140830151848203610140860152611cf08282611b70565b915050610160830151611d07610160860182611bce565b50610180830151611d1c610180860182611bb3565b508091505092915050565b60006020820190508181036000830152611d418184611bdd565b905092915050565b60008060408385031215611d6057611d5f6118e1565b5b600083013567ffffffffffffffff811115611d7e57611d7d6118e6565b5b611d8a85828601611a03565b925050602083013567ffffffffffffffff811115611dab57611daa6118e6565b5b611db785828601611a03565b9150509250929050565b611dca81611ba9565b8114611dd557600080fd5b50565b600081359050611de781611dc1565b92915050565b600060208284031215611e0357611e026118e1565b5b6000611e1184828501611dd8565b91505092915050565b600082825260208201905092915050565b6000611e3682611b21565b611e408185611e1a565b9350611e50818560208601611b3d565b611e59816118f5565b840191505092915050565b60006020820190508181036000830152611e7e8184611e2b565b905092915050565b611e8f81611ba9565b82525050565b6000602082019050611eaa6000830184611e86565b92915050565b60008060008060008060c08789031215611ecd57611ecc6118e1565b5b600087013567ffffffffffffffff811115611eeb57611eea6118e6565b5b611ef789828a01611a03565b965050602087013567ffffffffffffffff811115611f1857611f176118e6565b5b611f2489828a01611a03565b955050604087013567ffffffffffffffff811115611f4557611f446118e6565b5b611f5189828a01611a03565b945050606087013567ffffffffffffffff811115611f7257611f716118e6565b5b611f7e89828a01611a03565b935050608087013567ffffffffffffffff811115611f9f57611f9e6118e6565b5b611fab89828a01611a03565b92505060a087013567ffffffffffffffff811115611fcc57611fcb6118e6565b5b611fd889828a01611a03565b9150509295509295509295565b611fee81611bc2565b82525050565b60006020820190506120096000830184611fe5565b92915050565b600081905092915050565b600061202582611b21565b61202f818561200f565b935061203f818560208601611b3d565b80840191505092915050565b6000612057828461201a565b915081905092915050565b7f4e487b7100000000000000000000000000000000000000000000000000000000600052601160045260246000fd5b600061209c82611ba9565b91506120a783611ba9565b9250827fffffffffffffffffffffffffffffffffffffffffffffffffffffffffffffffff038211156120dc576120db612062565b5b828201905092915050565b7f4e487b7100000000000000000000000000000000000000000000000000000000600052602260045260246000fd5b6000600282049050600182168061212e57607f821691505b60208210811415612142576121416120e7565b5b50919050565b60008190508160005260206000209050919050565b6000815461216a81612116565b6121748186611e1a565b9450600182166000811461218f57600181146121a1576121d4565b60ff19831686526020860193506121d4565b6121aa85612148565b60005b838110156121cc578154818901526001820191506020810190506121ad565b808801955050505b50505092915050565b600060408201905081810360008301526121f7818561215d565b9050818103602083015261220b8184611e2b565b90509392505050565b7f50726f66696c6520646f6573206e6f7420657869737421210000000000000000600082015250565b600061224a601883611e1a565b915061225582612214565b602082019050919050565b600060208201905081810360008301526122798161223d565b9050919050565b600061229361228e84611981565b611966565b9050828152602081018484840111156122af576122ae6118f0565b5b6122ba848285611b3d565b509392505050565b600082601f8301126122d7576122d66118eb565b5b81516122e7848260208601612280565b91505092915050565b600060208284031215612306576123056118e1565b5b600082015167ffffffffffffffff811115612324576123236118e6565b5b612330848285016122c2565b91505092915050565b60006040820190508181036000830152612353818561215d565b90506123626020830184611e86565b9392505050565b7f50726f66696c6520206578697374732121000000000000000000000000000000600082015250565b600061239f601183611e1a565b91506123aa82612369565b602082019050919050565b600060208201905081810360008301526123ce81612392565b9050919050565b60006040820190506123ea6000830185611e86565b81810360208301526123fc8184611e2b565b90509392505050565b60008151905061241481611dc1565b92915050565b6000602082840312156124305761242f6118e1565b5b600061243e84828501612405565b9150509291505056fea2646970667358221220dea5f73ae1265f95dfc7d752df30f8cdf15ffe703d734b6fc92a3e92e767e2ff64736f6c63430008090033",
  "linkReferences": {},
  "deployedLinkReferences": {}
}