{
  "_format": "hh-sol-artifact-1",
  "contractName": "Elpis",
  "sourceName": "contracts/Elpis.sol",
  "abi": [
    {
      "anonymous": false,
      "inputs": [
        {
          "indexed": false,
          "internalType": "string",
          "name": "handle",
          "type": "string"
        },
        {
          "indexed": false,
          "internalType": "uint256",
          "name": "postCount",
          "type": "uint256"
        }
      ],
      "name": "PostCreated",
      "type": "event"
    },
    {
      "anonymous": false,
      "inputs": [
        {
          "indexed": false,
          "internalType": "string",
          "name": "posthandle",
          "type": "string"
        }
      ],
      "name": "PostInteraction",
      "type": "event"
    },
    {
      "anonymous": false,
      "inputs": [
        {
          "indexed": false,
          "internalType": "string",
          "name": "handle",
          "type": "string"
        },
        {
          "indexed": true,
          "internalType": "address",
          "name": "user",
          "type": "address"
        }
      ],
      "name": "ProfileCreated",
      "type": "event"
    },
    {
      "anonymous": false,
      "inputs": [
        {
          "indexed": false,
          "internalType": "string",
          "name": "follwerhandle",
          "type": "string"
        },
        {
          "indexed": false,
          "internalType": "string",
          "name": "followinghandle",
          "type": "string"
        }
      ],
      "name": "StartedFollowing",
      "type": "event"
    },
    {
      "inputs": [
        {
          "internalType": "string",
          "name": "_postProfileHandle",
          "type": "string"
        },
        {
          "internalType": "string",
          "name": "_postMetadata",
          "type": "string"
        }
      ],
      "name": "addCommentAndLikes",
      "outputs": [],
      "stateMutability": "nonpayable",
      "type": "function"
    },
    {
      "inputs": [
        {
          "internalType": "string",
          "name": "_postMetaData",
          "type": "string"
        }
      ],
      "name": "addPost",
      "outputs": [],
      "stateMutability": "nonpayable",
      "type": "function"
    },
    {
      "inputs": [
        {
          "internalType": "string",
          "name": "_name",
          "type": "string"
        },
        {
          "internalType": "string",
          "name": "_handle",
          "type": "string"
        },
        {
          "internalType": "string",
          "name": "_bio",
          "type": "string"
        },
        {
          "internalType": "string",
          "name": "_profileImageUrl",
          "type": "string"
        },
        {
          "internalType": "string",
          "name": "_coverImageUrl",
          "type": "string"
        }
      ],
      "name": "createProfile",
      "outputs": [
        {
          "internalType": "string",
          "name": "userHandle",
          "type": "string"
        }
      ],
      "stateMutability": "nonpayable",
      "type": "function"
    },
    {
      "inputs": [
        {
          "internalType": "string",
          "name": "_handle",
          "type": "string"
        },
        {
          "internalType": "string",
          "name": "_followerMetaData",
          "type": "string"
        },
        {
          "internalType": "string",
          "name": "_followingMetaData",
          "type": "string"
        }
      ],
      "name": "followProfile",
      "outputs": [],
      "stateMutability": "nonpayable",
      "type": "function"
    },
    {
      "inputs": [],
      "name": "getProfile",
      "outputs": [
        {
          "components": [
            {
              "internalType": "string",
              "name": "name",
              "type": "string"
            },
            {
              "internalType": "string",
              "name": "handle",
              "type": "string"
            },
            {
              "internalType": "string",
              "name": "bio",
              "type": "string"
            },
            {
              "internalType": "string",
              "name": "profileImageUrl",
              "type": "string"
            },
            {
              "internalType": "string",
              "name": "coverImageUrl",
              "type": "string"
            },
            {
              "internalType": "uint256",
              "name": "followerCount",
              "type": "uint256"
            },
            {
              "internalType": "uint256",
              "name": "followingCount",
              "type": "uint256"
            },
            {
              "internalType": "uint256",
              "name": "postCount",
              "type": "uint256"
            },
            {
              "internalType": "string",
              "name": "followerMetaData",
              "type": "string"
            },
            {
              "internalType": "string",
              "name": "followingMetaData",
              "type": "string"
            },
            {
              "internalType": "string",
              "name": "postMetaData",
              "type": "string"
            },
            {
              "internalType": "bool",
              "name": "profileExist",
              "type": "bool"
            }
          ],
          "internalType": "struct Elpis.Profile",
          "name": "_user",
          "type": "tuple"
        }
      ],
      "stateMutability": "view",
      "type": "function"
    },
    {
      "inputs": [],
      "name": "getTotalUser",
      "outputs": [
        {
          "internalType": "uint256",
          "name": "",
          "type": "uint256"
        }
      ],
      "stateMutability": "view",
      "type": "function"
    },
    {
      "inputs": [
        {
          "internalType": "string",
          "name": "_handle",
          "type": "string"
        }
      ],
      "name": "isHandleExist",
      "outputs": [
        {
          "internalType": "bool",
          "name": "_isHandleExist",
          "type": "bool"
        }
      ],
      "stateMutability": "view",
      "type": "function"
    },
    {
      "inputs": [
        {
          "internalType": "string",
          "name": "_handle",
          "type": "string"
        }
      ],
      "name": "searchProfile",
      "outputs": [
        {
          "components": [
            {
              "internalType": "string",
              "name": "name",
              "type": "string"
            },
            {
              "internalType": "string",
              "name": "handle",
              "type": "string"
            },
            {
              "internalType": "string",
              "name": "bio",
              "type": "string"
            },
            {
              "internalType": "string",
              "name": "profileImageUrl",
              "type": "string"
            },
            {
              "internalType": "string",
              "name": "coverImageUrl",
              "type": "string"
            },
            {
              "internalType": "uint256",
              "name": "followerCount",
              "type": "uint256"
            },
            {
              "internalType": "uint256",
              "name": "followingCount",
              "type": "uint256"
            },
            {
              "internalType": "uint256",
              "name": "postCount",
              "type": "uint256"
            },
            {
              "internalType": "string",
              "name": "followerMetaData",
              "type": "string"
            },
            {
              "internalType": "string",
              "name": "followingMetaData",
              "type": "string"
            },
            {
              "internalType": "string",
              "name": "postMetaData",
              "type": "string"
            },
            {
              "internalType": "bool",
              "name": "profileExist",
              "type": "bool"
            }
          ],
          "internalType": "struct Elpis.Profile",
          "name": "_user",
          "type": "tuple"
        }
      ],
      "stateMutability": "view",
      "type": "function"
    }
  ],
  "bytecode": "0x608060405234801561001057600080fd5b50612095806100206000396000f3fe608060405234801561001057600080fd5b50600436106100885760003560e01c8063a63228191161005b578063a632281914610125578063a9c63aa014610141578063d6afc9b11461015f578063decb51851461017d57610088565b806337b3cd8a1461008d578063458ac54a146100bd5780634694150a146100d957806375b97ed114610109575b600080fd5b6100a760048036038101906100a29190611810565b6101ad565b6040516100b4919061199f565b60405180910390f35b6100d760048036038101906100d291906119c1565b6104cb565b005b6100f360048036038101906100ee9190611a68565b610723565b6040516101009190611c64565b60405180910390f35b610123600480360381019061011e9190611c86565b610d31565b005b61013f600480360381019061013a9190611a68565b610e06565b005b610149610f72565b6040516101569190611d0d565b60405180910390f35b610167610f7c565b6040516101749190611c64565b60405180910390f35b61019760048036038101906101929190611a68565b61152a565b6040516101a49190611d37565b60405180910390f35b60606000803373ffffffffffffffffffffffffffffffffffffffff1673ffffffffffffffffffffffffffffffffffffffff168152602001908152602001600020600b0160009054906101000a900460ff161561023e576040517f08c379a000000000000000000000000000000000000000000000000000000000815260040161023590611d9e565b60405180910390fd5b6102466115b0565b868160000181905250858160200181905250848160400181905250838160600181905250828160800181905250600181610160019015159081151581525050806000803373ffffffffffffffffffffffffffffffffffffffff1673ffffffffffffffffffffffffffffffffffffffff16815260200190815260200160002060008201518160000190805190602001906102e0929190611613565b5060208201518160010190805190602001906102fd929190611613565b50604082015181600201908051906020019061031a929190611613565b506060820151816003019080519060200190610337929190611613565b506080820151816004019080519060200190610354929190611613565b5060a0820151816005015560c0820151816006015560e08201518160070155610100820151816008019080519060200190610390929190611613565b506101208201518160090190805190602001906103ae929190611613565b5061014082015181600a0190805190602001906103cc929190611613565b5061016082015181600b0160006101000a81548160ff021916908315150217905550905050336001876040516104029190611dfa565b908152602001604051809103902060006101000a81548173ffffffffffffffffffffffffffffffffffffffff021916908373ffffffffffffffffffffffffffffffffffffffff1602179055506001600260008282546104619190611e40565b925050819055503373ffffffffffffffffffffffffffffffffffffffff167f48cd04660754343a75aabc83899998826b6c3fc1c623d3cfb42bcd3e465cfa3c82602001516040516104b2919061199f565b60405180910390a2806020015191505095945050505050565b816000806001866040516104df9190611dfa565b908152602001604051809103902060009054906101000a900473ffffffffffffffffffffffffffffffffffffffff1673ffffffffffffffffffffffffffffffffffffffff1673ffffffffffffffffffffffffffffffffffffffff168152602001908152602001600020600801908051906020019061055e929190611613565b5060016000806001866040516105749190611dfa565b908152602001604051809103902060009054906101000a900473ffffffffffffffffffffffffffffffffffffffff1673ffffffffffffffffffffffffffffffffffffffff1673ffffffffffffffffffffffffffffffffffffffff16815260200190815260200160002060050160008282546105ef9190611e40565b92505081905550806000803373ffffffffffffffffffffffffffffffffffffffff1673ffffffffffffffffffffffffffffffffffffffff168152602001908152602001600020600901908051906020019061064b929190611613565b5060016000803373ffffffffffffffffffffffffffffffffffffffff1673ffffffffffffffffffffffffffffffffffffffff168152602001908152602001600020600601600082825461069e9190611e40565b925050819055507f8cdd3ba8c3b34319b5b41d79769ffd341e01d7849b27de2c28a2643663080aef6000803373ffffffffffffffffffffffffffffffffffffffff1673ffffffffffffffffffffffffffffffffffffffff16815260200190815260200160002060010184604051610716929190611f8c565b60405180910390a1505050565b61072b6115b0565b600073ffffffffffffffffffffffffffffffffffffffff166001836040516107539190611dfa565b908152602001604051809103902060009054906101000a900473ffffffffffffffffffffffffffffffffffffffff1673ffffffffffffffffffffffffffffffffffffffff1614156107d9576040517f08c379a00000000000000000000000000000000000000000000000000000000081526004016107d09061200f565b60405180910390fd5b6000806001846040516107ec9190611dfa565b908152602001604051809103902060009054906101000a900473ffffffffffffffffffffffffffffffffffffffff1673ffffffffffffffffffffffffffffffffffffffff1673ffffffffffffffffffffffffffffffffffffffff1681526020019081526020016000206040518061018001604052908160008201805461087190611ec5565b80601f016020809104026020016040519081016040528092919081815260200182805461089d90611ec5565b80156108ea5780601f106108bf576101008083540402835291602001916108ea565b820191906000526020600020905b8154815290600101906020018083116108cd57829003601f168201915b5050505050815260200160018201805461090390611ec5565b80601f016020809104026020016040519081016040528092919081815260200182805461092f90611ec5565b801561097c5780601f106109515761010080835404028352916020019161097c565b820191906000526020600020905b81548152906001019060200180831161095f57829003601f168201915b5050505050815260200160028201805461099590611ec5565b80601f01602080910402602001604051908101604052809291908181526020018280546109c190611ec5565b8015610a0e5780601f106109e357610100808354040283529160200191610a0e565b820191906000526020600020905b8154815290600101906020018083116109f157829003601f168201915b50505050508152602001600382018054610a2790611ec5565b80601f0160208091040260200160405190810160405280929190818152602001828054610a5390611ec5565b8015610aa05780601f10610a7557610100808354040283529160200191610aa0565b820191906000526020600020905b815481529060010190602001808311610a8357829003601f168201915b50505050508152602001600482018054610ab990611ec5565b80601f0160208091040260200160405190810160405280929190818152602001828054610ae590611ec5565b8015610b325780601f10610b0757610100808354040283529160200191610b32565b820191906000526020600020905b815481529060010190602001808311610b1557829003601f168201915b50505050508152602001600582015481526020016006820154815260200160078201548152602001600882018054610b6990611ec5565b80601f0160208091040260200160405190810160405280929190818152602001828054610b9590611ec5565b8015610be25780601f10610bb757610100808354040283529160200191610be2565b820191906000526020600020905b815481529060010190602001808311610bc557829003601f168201915b50505050508152602001600982018054610bfb90611ec5565b80601f0160208091040260200160405190810160405280929190818152602001828054610c2790611ec5565b8015610c745780601f10610c4957610100808354040283529160200191610c74565b820191906000526020600020905b815481529060010190602001808311610c5757829003601f168201915b50505050508152602001600a82018054610c8d90611ec5565b80601f0160208091040260200160405190810160405280929190818152602001828054610cb990611ec5565b8015610d065780601f10610cdb57610100808354040283529160200191610d06565b820191906000526020600020905b815481529060010190602001808311610ce957829003601f168201915b50505050508152602001600b820160009054906101000a900460ff1615151515815250509050919050565b6000600183604051610d439190611dfa565b908152602001604051809103902060009054906101000a900473ffffffffffffffffffffffffffffffffffffffff169050816000808373ffffffffffffffffffffffffffffffffffffffff1673ffffffffffffffffffffffffffffffffffffffff168152602001908152602001600020600a019080519060200190610dc9929190611613565b507f6819b30a8035cdaf9ee21f913a815e598603d80418073b6462ff68495b5bafc583604051610df9919061199f565b60405180910390a1505050565b806000803373ffffffffffffffffffffffffffffffffffffffff1673ffffffffffffffffffffffffffffffffffffffff168152602001908152602001600020600a019080519060200190610e5b929190611613565b5060016000803373ffffffffffffffffffffffffffffffffffffffff1673ffffffffffffffffffffffffffffffffffffffff1681526020019081526020016000206007016000828254610eae9190611e40565b925050819055507f8bed420d642f3f71000caf554c0351ced19dc5b0dd8632f5f586e077995ded676000803373ffffffffffffffffffffffffffffffffffffffff1673ffffffffffffffffffffffffffffffffffffffff1681526020019081526020016000206001016000803373ffffffffffffffffffffffffffffffffffffffff1673ffffffffffffffffffffffffffffffffffffffff16815260200190815260200160002060070154604051610f6792919061202f565b60405180910390a150565b6000600254905090565b610f846115b0565b6000803373ffffffffffffffffffffffffffffffffffffffff1673ffffffffffffffffffffffffffffffffffffffff168152602001908152602001600020600b0160009054906101000a900460ff16611012576040517f08c379a00000000000000000000000000000000000000000000000000000000081526004016110099061200f565b60405180910390fd5b6000803373ffffffffffffffffffffffffffffffffffffffff1673ffffffffffffffffffffffffffffffffffffffff1681526020019081526020016000206040518061018001604052908160008201805461106c90611ec5565b80601f016020809104026020016040519081016040528092919081815260200182805461109890611ec5565b80156110e55780601f106110ba576101008083540402835291602001916110e5565b820191906000526020600020905b8154815290600101906020018083116110c857829003601f168201915b505050505081526020016001820180546110fe90611ec5565b80601f016020809104026020016040519081016040528092919081815260200182805461112a90611ec5565b80156111775780601f1061114c57610100808354040283529160200191611177565b820191906000526020600020905b81548152906001019060200180831161115a57829003601f168201915b5050505050815260200160028201805461119090611ec5565b80601f01602080910402602001604051908101604052809291908181526020018280546111bc90611ec5565b80156112095780601f106111de57610100808354040283529160200191611209565b820191906000526020600020905b8154815290600101906020018083116111ec57829003601f168201915b5050505050815260200160038201805461122290611ec5565b80601f016020809104026020016040519081016040528092919081815260200182805461124e90611ec5565b801561129b5780601f106112705761010080835404028352916020019161129b565b820191906000526020600020905b81548152906001019060200180831161127e57829003601f168201915b505050505081526020016004820180546112b490611ec5565b80601f01602080910402602001604051908101604052809291908181526020018280546112e090611ec5565b801561132d5780601f106113025761010080835404028352916020019161132d565b820191906000526020600020905b81548152906001019060200180831161131057829003601f168201915b5050505050815260200160058201548152602001600682015481526020016007820154815260200160088201805461136490611ec5565b80601f016020809104026020016040519081016040528092919081815260200182805461139090611ec5565b80156113dd5780601f106113b2576101008083540402835291602001916113dd565b820191906000526020600020905b8154815290600101906020018083116113c057829003601f168201915b505050505081526020016009820180546113f690611ec5565b80601f016020809104026020016040519081016040528092919081815260200182805461142290611ec5565b801561146f5780601f106114445761010080835404028352916020019161146f565b820191906000526020600020905b81548152906001019060200180831161145257829003601f168201915b50505050508152602001600a8201805461148890611ec5565b80601f01602080910402602001604051908101604052809291908181526020018280546114b490611ec5565b80156115015780601f106114d657610100808354040283529160200191611501565b820191906000526020600020905b8154815290600101906020018083116114e457829003601f168201915b50505050508152602001600b820160009054906101000a900460ff161515151581525050905090565b60008073ffffffffffffffffffffffffffffffffffffffff166001836040516115539190611dfa565b908152602001604051809103902060009054906101000a900473ffffffffffffffffffffffffffffffffffffffff1673ffffffffffffffffffffffffffffffffffffffff16146115a657600190506115ab565b600090505b919050565b60405180610180016040528060608152602001606081526020016060815260200160608152602001606081526020016000815260200160008152602001600081526020016060815260200160608152602001606081526020016000151581525090565b82805461161f90611ec5565b90600052602060002090601f0160209004810192826116415760008555611688565b82601f1061165a57805160ff1916838001178555611688565b82800160010185558215611688579182015b8281111561168757825182559160200191906001019061166c565b5b5090506116959190611699565b5090565b5b808211156116b257600081600090555060010161169a565b5090565b6000604051905090565b600080fd5b600080fd5b600080fd5b600080fd5b6000601f19601f8301169050919050565b7f4e487b7100000000000000000000000000000000000000000000000000000000600052604160045260246000fd5b61171d826116d4565b810181811067ffffffffffffffff8211171561173c5761173b6116e5565b5b80604052505050565b600061174f6116b6565b905061175b8282611714565b919050565b600067ffffffffffffffff82111561177b5761177a6116e5565b5b611784826116d4565b9050602081019050919050565b82818337600083830152505050565b60006117b36117ae84611760565b611745565b9050828152602081018484840111156117cf576117ce6116cf565b5b6117da848285611791565b509392505050565b600082601f8301126117f7576117f66116ca565b5b81356118078482602086016117a0565b91505092915050565b600080600080600060a0868803121561182c5761182b6116c0565b5b600086013567ffffffffffffffff81111561184a576118496116c5565b5b611856888289016117e2565b955050602086013567ffffffffffffffff811115611877576118766116c5565b5b611883888289016117e2565b945050604086013567ffffffffffffffff8111156118a4576118a36116c5565b5b6118b0888289016117e2565b935050606086013567ffffffffffffffff8111156118d1576118d06116c5565b5b6118dd888289016117e2565b925050608086013567ffffffffffffffff8111156118fe576118fd6116c5565b5b61190a888289016117e2565b9150509295509295909350565b600081519050919050565b600082825260208201905092915050565b60005b83811015611951578082015181840152602081019050611936565b83811115611960576000848401525b50505050565b600061197182611917565b61197b8185611922565b935061198b818560208601611933565b611994816116d4565b840191505092915050565b600060208201905081810360008301526119b98184611966565b905092915050565b6000806000606084860312156119da576119d96116c0565b5b600084013567ffffffffffffffff8111156119f8576119f76116c5565b5b611a04868287016117e2565b935050602084013567ffffffffffffffff811115611a2557611a246116c5565b5b611a31868287016117e2565b925050604084013567ffffffffffffffff811115611a5257611a516116c5565b5b611a5e868287016117e2565b9150509250925092565b600060208284031215611a7e57611a7d6116c0565b5b600082013567ffffffffffffffff811115611a9c57611a9b6116c5565b5b611aa8848285016117e2565b91505092915050565b600082825260208201905092915050565b6000611acd82611917565b611ad78185611ab1565b9350611ae7818560208601611933565b611af0816116d4565b840191505092915050565b6000819050919050565b611b0e81611afb565b82525050565b60008115159050919050565b611b2981611b14565b82525050565b6000610180830160008301518482036000860152611b4d8282611ac2565b91505060208301518482036020860152611b678282611ac2565b91505060408301518482036040860152611b818282611ac2565b91505060608301518482036060860152611b9b8282611ac2565b91505060808301518482036080860152611bb58282611ac2565b91505060a0830151611bca60a0860182611b05565b5060c0830151611bdd60c0860182611b05565b5060e0830151611bf060e0860182611b05565b50610100830151848203610100860152611c0a8282611ac2565b915050610120830151848203610120860152611c268282611ac2565b915050610140830151848203610140860152611c428282611ac2565b915050610160830151611c59610160860182611b20565b508091505092915050565b60006020820190508181036000830152611c7e8184611b2f565b905092915050565b60008060408385031215611c9d57611c9c6116c0565b5b600083013567ffffffffffffffff811115611cbb57611cba6116c5565b5b611cc7858286016117e2565b925050602083013567ffffffffffffffff811115611ce857611ce76116c5565b5b611cf4858286016117e2565b9150509250929050565b611d0781611afb565b82525050565b6000602082019050611d226000830184611cfe565b92915050565b611d3181611b14565b82525050565b6000602082019050611d4c6000830184611d28565b92915050565b7f50726f66696c6520206578697374732121000000000000000000000000000000600082015250565b6000611d88601183611922565b9150611d9382611d52565b602082019050919050565b60006020820190508181036000830152611db781611d7b565b9050919050565b600081905092915050565b6000611dd482611917565b611dde8185611dbe565b9350611dee818560208601611933565b80840191505092915050565b6000611e068284611dc9565b915081905092915050565b7f4e487b7100000000000000000000000000000000000000000000000000000000600052601160045260246000fd5b6000611e4b82611afb565b9150611e5683611afb565b9250827fffffffffffffffffffffffffffffffffffffffffffffffffffffffffffffffff03821115611e8b57611e8a611e11565b5b828201905092915050565b7f4e487b7100000000000000000000000000000000000000000000000000000000600052602260045260246000fd5b60006002820490506001821680611edd57607f821691505b60208210811415611ef157611ef0611e96565b5b50919050565b60008190508160005260206000209050919050565b60008154611f1981611ec5565b611f238186611922565b94506001821660008114611f3e5760018114611f5057611f83565b60ff1983168652602086019350611f83565b611f5985611ef7565b60005b83811015611f7b57815481890152600182019150602081019050611f5c565b808801955050505b50505092915050565b60006040820190508181036000830152611fa68185611f0c565b90508181036020830152611fba8184611966565b90509392505050565b7f50726f66696c6520646f6573206e6f7420657869737421210000000000000000600082015250565b6000611ff9601883611922565b915061200482611fc3565b602082019050919050565b6000602082019050818103600083015261202881611fec565b9050919050565b600060408201905081810360008301526120498185611f0c565b90506120586020830184611cfe565b939250505056fea264697066735822122042386e10ba76148e76b043ad1ae979adca1ae8538247679f32d5f82a054ae4d964736f6c63430008090033",
  "linkReferences": {},
  "deployedLinkReferences": {}
}