{
  "_format": "hh-sol-artifact-1",
  "contractName": "CreatorToken",
  "sourceName": "contracts/ElpisCreator.sol",
  "abi": [
    {
      "inputs": [],
      "stateMutability": "nonpayable",
      "type": "constructor"
    },
    {
      "anonymous": false,
      "inputs": [
        {
          "indexed": true,
          "internalType": "address",
          "name": "account",
          "type": "address"
        },
        {
          "indexed": true,
          "internalType": "address",
          "name": "operator",
          "type": "address"
        },
        {
          "indexed": false,
          "internalType": "bool",
          "name": "approved",
          "type": "bool"
        }
      ],
      "name": "ApprovalForAll",
      "type": "event"
    },
    {
      "anonymous": false,
      "inputs": [
        {
          "indexed": true,
          "internalType": "address",
          "name": "previousOwner",
          "type": "address"
        },
        {
          "indexed": true,
          "internalType": "address",
          "name": "newOwner",
          "type": "address"
        }
      ],
      "name": "OwnershipTransferred",
      "type": "event"
    },
    {
      "anonymous": false,
      "inputs": [
        {
          "indexed": true,
          "internalType": "address",
          "name": "operator",
          "type": "address"
        },
        {
          "indexed": true,
          "internalType": "address",
          "name": "from",
          "type": "address"
        },
        {
          "indexed": true,
          "internalType": "address",
          "name": "to",
          "type": "address"
        },
        {
          "indexed": false,
          "internalType": "uint256[]",
          "name": "ids",
          "type": "uint256[]"
        },
        {
          "indexed": false,
          "internalType": "uint256[]",
          "name": "values",
          "type": "uint256[]"
        }
      ],
      "name": "TransferBatch",
      "type": "event"
    },
    {
      "anonymous": false,
      "inputs": [
        {
          "indexed": true,
          "internalType": "address",
          "name": "operator",
          "type": "address"
        },
        {
          "indexed": true,
          "internalType": "address",
          "name": "from",
          "type": "address"
        },
        {
          "indexed": true,
          "internalType": "address",
          "name": "to",
          "type": "address"
        },
        {
          "indexed": false,
          "internalType": "uint256",
          "name": "id",
          "type": "uint256"
        },
        {
          "indexed": false,
          "internalType": "uint256",
          "name": "value",
          "type": "uint256"
        }
      ],
      "name": "TransferSingle",
      "type": "event"
    },
    {
      "anonymous": false,
      "inputs": [
        {
          "indexed": false,
          "internalType": "string",
          "name": "value",
          "type": "string"
        },
        {
          "indexed": true,
          "internalType": "uint256",
          "name": "id",
          "type": "uint256"
        }
      ],
      "name": "URI",
      "type": "event"
    },
    {
      "inputs": [
        {
          "internalType": "address",
          "name": "account",
          "type": "address"
        },
        {
          "internalType": "uint256",
          "name": "id",
          "type": "uint256"
        }
      ],
      "name": "balanceOf",
      "outputs": [
        {
          "internalType": "uint256",
          "name": "",
          "type": "uint256"
        }
      ],
      "stateMutability": "view",
      "type": "function"
    },
    {
      "inputs": [
        {
          "internalType": "address[]",
          "name": "accounts",
          "type": "address[]"
        },
        {
          "internalType": "uint256[]",
          "name": "ids",
          "type": "uint256[]"
        }
      ],
      "name": "balanceOfBatch",
      "outputs": [
        {
          "internalType": "uint256[]",
          "name": "",
          "type": "uint256[]"
        }
      ],
      "stateMutability": "view",
      "type": "function"
    },
    {
      "inputs": [
        {
          "internalType": "uint256",
          "name": "_tokenId",
          "type": "uint256"
        }
      ],
      "name": "getBalance",
      "outputs": [
        {
          "internalType": "uint256",
          "name": "",
          "type": "uint256"
        }
      ],
      "stateMutability": "view",
      "type": "function"
    },
    {
      "inputs": [
        {
          "internalType": "uint256",
          "name": "profileId",
          "type": "uint256"
        },
        {
          "internalType": "address",
          "name": "profileAddress",
          "type": "address"
        }
      ],
      "name": "getCreatorToken",
      "outputs": [],
      "stateMutability": "nonpayable",
      "type": "function"
    },
    {
      "inputs": [
        {
          "internalType": "address",
          "name": "account",
          "type": "address"
        },
        {
          "internalType": "address",
          "name": "operator",
          "type": "address"
        }
      ],
      "name": "isApprovedForAll",
      "outputs": [
        {
          "internalType": "bool",
          "name": "",
          "type": "bool"
        }
      ],
      "stateMutability": "view",
      "type": "function"
    },
    {
      "inputs": [
        {
          "internalType": "uint256",
          "name": "profileId",
          "type": "uint256"
        }
      ],
      "name": "mintCreatorToken",
      "outputs": [],
      "stateMutability": "nonpayable",
      "type": "function"
    },
    {
      "inputs": [],
      "name": "owner",
      "outputs": [
        {
          "internalType": "address",
          "name": "",
          "type": "address"
        }
      ],
      "stateMutability": "view",
      "type": "function"
    },
    {
      "inputs": [],
      "name": "renounceOwnership",
      "outputs": [],
      "stateMutability": "nonpayable",
      "type": "function"
    },
    {
      "inputs": [
        {
          "internalType": "address",
          "name": "from",
          "type": "address"
        },
        {
          "internalType": "address",
          "name": "to",
          "type": "address"
        },
        {
          "internalType": "uint256[]",
          "name": "ids",
          "type": "uint256[]"
        },
        {
          "internalType": "uint256[]",
          "name": "amounts",
          "type": "uint256[]"
        },
        {
          "internalType": "bytes",
          "name": "data",
          "type": "bytes"
        }
      ],
      "name": "safeBatchTransferFrom",
      "outputs": [],
      "stateMutability": "nonpayable",
      "type": "function"
    },
    {
      "inputs": [
        {
          "internalType": "address",
          "name": "from",
          "type": "address"
        },
        {
          "internalType": "address",
          "name": "to",
          "type": "address"
        },
        {
          "internalType": "uint256",
          "name": "id",
          "type": "uint256"
        },
        {
          "internalType": "uint256",
          "name": "amount",
          "type": "uint256"
        },
        {
          "internalType": "bytes",
          "name": "data",
          "type": "bytes"
        }
      ],
      "name": "safeTransferFrom",
      "outputs": [],
      "stateMutability": "nonpayable",
      "type": "function"
    },
    {
      "inputs": [
        {
          "internalType": "address",
          "name": "operator",
          "type": "address"
        },
        {
          "internalType": "bool",
          "name": "approved",
          "type": "bool"
        }
      ],
      "name": "setApprovalForAll",
      "outputs": [],
      "stateMutability": "nonpayable",
      "type": "function"
    },
    {
      "inputs": [
        {
          "internalType": "string",
          "name": "newuri",
          "type": "string"
        }
      ],
      "name": "setURI",
      "outputs": [],
      "stateMutability": "nonpayable",
      "type": "function"
    },
    {
      "inputs": [
        {
          "internalType": "bytes4",
          "name": "interfaceId",
          "type": "bytes4"
        }
      ],
      "name": "supportsInterface",
      "outputs": [
        {
          "internalType": "bool",
          "name": "",
          "type": "bool"
        }
      ],
      "stateMutability": "view",
      "type": "function"
    },
    {
      "inputs": [
        {
          "internalType": "address",
          "name": "newOwner",
          "type": "address"
        }
      ],
      "name": "transferOwnership",
      "outputs": [],
      "stateMutability": "nonpayable",
      "type": "function"
    },
    {
      "inputs": [
        {
          "internalType": "uint256",
          "name": "",
          "type": "uint256"
        }
      ],
      "name": "uri",
      "outputs": [
        {
          "internalType": "string",
          "name": "",
          "type": "string"
        }
      ],
      "stateMutability": "view",
      "type": "function"
    }
  ],
  "bytecode": "0x60806040523480156200001157600080fd5b506040805160208101909152600081526200002c816200003e565b50620000383362000057565b6200018c565b805162000053906002906020840190620000a9565b5050565b600380546001600160a01b038381166001600160a01b0319831681179093556040519116919082907f8be0079c531659141344cd1fd0a4f28419497f9722a3daafe3b4186f6b6457e090600090a35050565b828054620000b7906200014f565b90600052602060002090601f016020900481019282620000db576000855562000126565b82601f10620000f657805160ff191683800117855562000126565b8280016001018555821562000126579182015b828111156200012657825182559160200191906001019062000109565b506200013492915062000138565b5090565b5b8082111562000134576000815560010162000139565b600181811c908216806200016457607f821691505b602082108114156200018657634e487b7160e01b600052602260045260246000fd5b50919050565b6118e7806200019c6000396000f3fe608060405234801561001057600080fd5b50600436106100f45760003560e01c80634e1273f411610097578063bbeadf9e11610066578063bbeadf9e14610206578063e985e9c514610219578063f242432a14610255578063f2fde38b1461026857600080fd5b80634e1273f4146101b0578063715018a6146101d05780638da5cb5b146101d8578063a22cb465146101f357600080fd5b80630e89341c116100d35780630e89341c14610157578063144bedc4146101775780631e0104391461018a5780632eb2c2d61461019d57600080fd5b8062fdd58e146100f957806301ffc9a71461011f57806302fe530514610142575b600080fd5b61010c61010736600461100b565b61027b565b6040519081526020015b60405180910390f35b61013261012d36600461104b565b610311565b6040519015158152602001610116565b610155610150366004611109565b610363565b005b61016a61016536600461115a565b610377565b60405161011691906111c0565b6101556101853660046111d3565b61040b565b61010c61019836600461115a565b610494565b6101556101ab3660046112b4565b6104a8565b6101c36101be36600461135e565b6104f4565b6040516101169190611464565b61015561061e565b6003546040516001600160a01b039091168152602001610116565b610155610201366004611477565b610632565b61015561021436600461115a565b610641565b6101326102273660046114b3565b6001600160a01b03918216600090815260016020908152604080832093909416825291909152205460ff1690565b6101556102633660046114dd565b610668565b610155610276366004611542565b6106ad565b60006001600160a01b0383166102eb5760405162461bcd60e51b815260206004820152602a60248201527f455243313135353a2061646472657373207a65726f206973206e6f742061207660448201526930b634b21037bbb732b960b11b60648201526084015b60405180910390fd5b506000908152602081815260408083206001600160a01b03949094168352929052205490565b60006001600160e01b03198216636cdb3d1360e11b148061034257506001600160e01b031982166303a24d0760e21b145b8061035d57506301ffc9a760e01b6001600160e01b03198316145b92915050565b61036b610723565b6103748161077d565b50565b6060600280546103869061155d565b80601f01602080910402602001604051908101604052809291908181526020018280546103b29061155d565b80156103ff5780601f106103d4576101008083540402835291602001916103ff565b820191906000526020600020905b8154815290600101906020018083116103e257829003601f168201915b50505050509050919050565b604051637921219560e11b81526001600160a01b03821660048201523360248201526044810183905260016064820181905260a0608483015260a4820152600160fd1b60c4820152309063f242432a9060e401600060405180830381600087803b15801561047857600080fd5b505af115801561048c573d6000803e3d6000fd5b505050505050565b6000806104a1338461027b565b9392505050565b6001600160a01b0385163314806104c457506104c48533610227565b6104e05760405162461bcd60e51b81526004016102e290611598565b6104ed8585858585610790565b5050505050565b606081518351146105595760405162461bcd60e51b815260206004820152602960248201527f455243313135353a206163636f756e747320616e6420696473206c656e677468604482015268040dad2e6dac2e8c6d60bb1b60648201526084016102e2565b6000835167ffffffffffffffff81111561057557610575611068565b60405190808252806020026020018201604052801561059e578160200160208202803683370190505b50905060005b8451811015610616576105e98582815181106105c2576105c26115e7565b60200260200101518583815181106105dc576105dc6115e7565b602002602001015161027b565b8282815181106105fb576105fb6115e7565b602090810291909101015261060f81611613565b90506105a4565b509392505050565b610626610723565b6106306000610965565b565b61063d3383836109b7565b5050565b61065d3382606460405180602001604052806000815250610a98565b610374306001610632565b6001600160a01b03851633148061068457506106848533610227565b6106a05760405162461bcd60e51b81526004016102e290611598565b6104ed8585858585610bac565b6106b5610723565b6001600160a01b03811661071a5760405162461bcd60e51b815260206004820152602660248201527f4f776e61626c653a206e6577206f776e657220697320746865207a65726f206160448201526564647265737360d01b60648201526084016102e2565b61037481610965565b6003546001600160a01b031633146106305760405162461bcd60e51b815260206004820181905260248201527f4f776e61626c653a2063616c6c6572206973206e6f7420746865206f776e657260448201526064016102e2565b805161063d906002906020840190610f56565b81518351146107f25760405162461bcd60e51b815260206004820152602860248201527f455243313135353a2069647320616e6420616d6f756e7473206c656e677468206044820152670dad2e6dac2e8c6d60c31b60648201526084016102e2565b6001600160a01b0384166108185760405162461bcd60e51b81526004016102e29061162e565b3360005b84518110156108ff576000858281518110610839576108396115e7565b602002602001015190506000858381518110610857576108576115e7565b602090810291909101810151600084815280835260408082206001600160a01b038e1683529093529190912054909150818110156108a75760405162461bcd60e51b81526004016102e290611673565b6000838152602081815260408083206001600160a01b038e8116855292528083208585039055908b168252812080548492906108e49084906116bd565b92505081905550505050806108f890611613565b905061081c565b50846001600160a01b0316866001600160a01b0316826001600160a01b03167f4a39dc06d4c0dbc64b70af90fd698a233a518aa5d07e595d983b8c0526c8f7fb878760405161094f9291906116d5565b60405180910390a461048c818787878787610cd6565b600380546001600160a01b038381166001600160a01b0319831681179093556040519116919082907f8be0079c531659141344cd1fd0a4f28419497f9722a3daafe3b4186f6b6457e090600090a35050565b816001600160a01b0316836001600160a01b03161415610a2b5760405162461bcd60e51b815260206004820152602960248201527f455243313135353a2073657474696e6720617070726f76616c20737461747573604482015268103337b91039b2b63360b91b60648201526084016102e2565b6001600160a01b03838116600081815260016020908152604080832094871680845294825291829020805460ff191686151590811790915591519182527f17307eab39ab6107e8899845ad3d59bd9653f200f220920489ca2b5937696c31910160405180910390a3505050565b6001600160a01b038416610af85760405162461bcd60e51b815260206004820152602160248201527f455243313135353a206d696e7420746f20746865207a65726f206164647265736044820152607360f81b60648201526084016102e2565b336000610b0485610e41565b90506000610b1185610e41565b90506000868152602081815260408083206001600160a01b038b16845290915281208054879290610b439084906116bd565b909155505060408051878152602081018790526001600160a01b03808a1692600092918716917fc3d58168c5ae7397731d063d5bbf3d657854427343f4c083240f7aacaa2d0f62910160405180910390a4610ba383600089898989610e8c565b50505050505050565b6001600160a01b038416610bd25760405162461bcd60e51b81526004016102e29061162e565b336000610bde85610e41565b90506000610beb85610e41565b90506000868152602081815260408083206001600160a01b038c16845290915290205485811015610c2e5760405162461bcd60e51b81526004016102e290611673565b6000878152602081815260408083206001600160a01b038d8116855292528083208985039055908a16825281208054889290610c6b9084906116bd565b909155505060408051888152602081018890526001600160a01b03808b16928c821692918816917fc3d58168c5ae7397731d063d5bbf3d657854427343f4c083240f7aacaa2d0f62910160405180910390a4610ccb848a8a8a8a8a610e8c565b505050505050505050565b6001600160a01b0384163b1561048c5760405163bc197c8160e01b81526001600160a01b0385169063bc197c8190610d1a9089908990889088908890600401611703565b602060405180830381600087803b158015610d3457600080fd5b505af1925050508015610d64575060408051601f3d908101601f19168201909252610d6191810190611761565b60015b610e1157610d7061177e565b806308c379a01415610daa5750610d8561179a565b80610d905750610dac565b8060405162461bcd60e51b81526004016102e291906111c0565b505b60405162461bcd60e51b815260206004820152603460248201527f455243313135353a207472616e7366657220746f206e6f6e20455243313135356044820152732932b1b2b4bb32b91034b6b83632b6b2b73a32b960611b60648201526084016102e2565b6001600160e01b0319811663bc197c8160e01b14610ba35760405162461bcd60e51b81526004016102e290611824565b60408051600180825281830190925260609160009190602080830190803683370190505090508281600081518110610e7b57610e7b6115e7565b602090810291909101015292915050565b6001600160a01b0384163b1561048c5760405163f23a6e6160e01b81526001600160a01b0385169063f23a6e6190610ed0908990899088908890889060040161186c565b602060405180830381600087803b158015610eea57600080fd5b505af1925050508015610f1a575060408051601f3d908101601f19168201909252610f1791810190611761565b60015b610f2657610d7061177e565b6001600160e01b0319811663f23a6e6160e01b14610ba35760405162461bcd60e51b81526004016102e290611824565b828054610f629061155d565b90600052602060002090601f016020900481019282610f845760008555610fca565b82601f10610f9d57805160ff1916838001178555610fca565b82800160010185558215610fca579182015b82811115610fca578251825591602001919060010190610faf565b50610fd6929150610fda565b5090565b5b80821115610fd65760008155600101610fdb565b80356001600160a01b038116811461100657600080fd5b919050565b6000806040838503121561101e57600080fd5b61102783610fef565b946020939093013593505050565b6001600160e01b03198116811461037457600080fd5b60006020828403121561105d57600080fd5b81356104a181611035565b634e487b7160e01b600052604160045260246000fd5b601f8201601f1916810167ffffffffffffffff811182821017156110a4576110a4611068565b6040525050565b600067ffffffffffffffff8311156110c5576110c5611068565b6040516110dc601f8501601f19166020018261107e565b8091508381528484840111156110f157600080fd5b83836020830137600060208583010152509392505050565b60006020828403121561111b57600080fd5b813567ffffffffffffffff81111561113257600080fd5b8201601f8101841361114357600080fd5b611152848235602084016110ab565b949350505050565b60006020828403121561116c57600080fd5b5035919050565b6000815180845260005b818110156111995760208185018101518683018201520161117d565b818111156111ab576000602083870101525b50601f01601f19169290920160200192915050565b6020815260006104a16020830184611173565b600080604083850312156111e657600080fd5b823591506111f660208401610fef565b90509250929050565b600067ffffffffffffffff82111561121957611219611068565b5060051b60200190565b600082601f83011261123457600080fd5b81356020611241826111ff565b60405161124e828261107e565b83815260059390931b850182019282810191508684111561126e57600080fd5b8286015b848110156112895780358352918301918301611272565b509695505050505050565b600082601f8301126112a557600080fd5b6104a1838335602085016110ab565b600080600080600060a086880312156112cc57600080fd5b6112d586610fef565b94506112e360208701610fef565b9350604086013567ffffffffffffffff8082111561130057600080fd5b61130c89838a01611223565b9450606088013591508082111561132257600080fd5b61132e89838a01611223565b9350608088013591508082111561134457600080fd5b5061135188828901611294565b9150509295509295909350565b6000806040838503121561137157600080fd5b823567ffffffffffffffff8082111561138957600080fd5b818501915085601f83011261139d57600080fd5b813560206113aa826111ff565b6040516113b7828261107e565b83815260059390931b85018201928281019150898411156113d757600080fd5b948201945b838610156113fc576113ed86610fef565b825294820194908201906113dc565b9650508601359250508082111561141257600080fd5b5061141f85828601611223565b9150509250929050565b600081518084526020808501945080840160005b838110156114595781518752958201959082019060010161143d565b509495945050505050565b6020815260006104a16020830184611429565b6000806040838503121561148a57600080fd5b61149383610fef565b9150602083013580151581146114a857600080fd5b809150509250929050565b600080604083850312156114c657600080fd5b6114cf83610fef565b91506111f660208401610fef565b600080600080600060a086880312156114f557600080fd5b6114fe86610fef565b945061150c60208701610fef565b93506040860135925060608601359150608086013567ffffffffffffffff81111561153657600080fd5b61135188828901611294565b60006020828403121561155457600080fd5b6104a182610fef565b600181811c9082168061157157607f821691505b6020821081141561159257634e487b7160e01b600052602260045260246000fd5b50919050565b6020808252602f908201527f455243313135353a2063616c6c6572206973206e6f7420746f6b656e206f776e60408201526e195c881b9bdc88185c1c1c9bdd9959608a1b606082015260800190565b634e487b7160e01b600052603260045260246000fd5b634e487b7160e01b600052601160045260246000fd5b6000600019821415611627576116276115fd565b5060010190565b60208082526025908201527f455243313135353a207472616e7366657220746f20746865207a65726f206164604082015264647265737360d81b606082015260800190565b6020808252602a908201527f455243313135353a20696e73756666696369656e742062616c616e636520666f60408201526939103a3930b739b332b960b11b606082015260800190565b600082198211156116d0576116d06115fd565b500190565b6040815260006116e86040830185611429565b82810360208401526116fa8185611429565b95945050505050565b6001600160a01b0386811682528516602082015260a06040820181905260009061172f90830186611429565b82810360608401526117418186611429565b905082810360808401526117558185611173565b98975050505050505050565b60006020828403121561177357600080fd5b81516104a181611035565b600060033d11156117975760046000803e5060005160e01c5b90565b600060443d10156117a85790565b6040516003193d81016004833e81513d67ffffffffffffffff81602484011181841117156117d857505050505090565b82850191508151818111156117f05750505050505090565b843d870101602082850101111561180a5750505050505090565b6118196020828601018761107e565b509095945050505050565b60208082526028908201527f455243313135353a204552433131353552656365697665722072656a656374656040820152676420746f6b656e7360c01b606082015260800190565b6001600160a01b03868116825285166020820152604081018490526060810183905260a0608082018190526000906118a690830184611173565b97965050505050505056fea2646970667358221220ad9c48a2e2dda3e09cc600884f2352c631824639d64c4d536658f984dbe6d07364736f6c63430008090033",
  "linkReferences": {},
  "deployedLinkReferences": {}
}